:02000004700288
:10000000E0647B7095020270A3020270A502027088
:10001000A7020270A9020270AB0202700000000089
:10002000000000000000000000000000AD020270AF
:10003000AF02027000000000B1020270B302027051
:10004000B502027000000000B5020270B502027035
:1000500000000000B5020270B5020270B502027025
:10006000B5020270B5020270B5020270B5020270EC
:10007000B5020270B5020270B5020270B5020270DC
:10008000B5020270B5020270B5020270B5020270CC
:10009000000000000000000000000000B502027037
:1000A000B5020270B5020270B5020270B5020270AC
:1000B0001D780270B5020270B5020270B5020270BE
:1000C000B5020270B5020270B5020270B50202708C
:1000D000B502027091790270B5020270B502027029
:1000E000B5020270B5020270B5020270B50202706C
:1000F000B5020270B5020270B5020270B50202705C
:100100001D790270B5020270B5020270B50202706C
:10011000B5020270B502027000000000457802705E
:10012000B5020270B5020270B5020270B50202702B
:10013000B5020270B5020270A9770270B5020270B2
:10014000000000000000000000000000B502027086
:10015000B5020270B5020270B50202700000000024
:10016000B5020270B502027000000000000000003D
:10017000000000000000000000000000000000007F
:1001800000000000B5020270000000000000000046
:10019000B502027000000000B5020270B5020270E4
:1001A0005D6A027000000000B502027000F002F803
:1001B00000F061F80AA090E8000C82448344AAF1A0
:1001C0000107DA4501D100F056F8AFF2090EBAE89E
:1001D0000F0013F0010F18BFFB1A43F0010318477B
:1001E000E8170A0008180A000A444FF0000C10F83B
:1001F000013B13F0070408BF10F8014B1D1108BFA5
:1002000010F8015B641E05D010F8016B641E01F844
:10021000016BF9D113F0080F1EBF10F8014BAD1C94
:100220000C1B09D16D1E58BF01F801CBFAD505E0B2
:1002300014F8016B01F8016B6D1EF9D59142D6D30C
:10024000704700000023002400250026103A28BF34
:1002500078C1FBD8520728BF30C148BF0B60704738
:10026000642900F04780002070471FB50EF0ADFBF9
:100270001FBD10B510BD00F0F9FB1146FFF7F5FFEB
:100280000EF084FA00F017FC03B4FFF7F2FF03BC92
:100290000EF05BF90B48016841F4700101600A48F7
:1002A0000047FEE7FEE7FEE7FEE7FEE7FEE7FEE7C4
:1002B000FEE7FEE7FEE7000004480549034A054B58
:1002C0007047000088ED00E0AD010270E0447B70F3
:1002D000E0647B70E0447B70704700000FB4044919
:1002E00010B503AA029800F02FFB10BC5DF814FBB8
:1002F0000C0022702DE9F041064600241068752993
:10030000314616A510D0AFF30080002802DA404233
:1003100013A507E031688A0701D512A502E0490755
:1003200004D511A5012401E0AFF3008000210A22C9
:1003300006F1240709E0B0FBF2FCB0FBF2F302FB8C
:100340001C00303078541846491C0028F3D123464D
:100350002A463046BDE8F04100F09CBA000000009B
:100360002D0000002B000000200000002DE9F05FB0
:10037000894604464FF0000ADFF824B1FB44C0F878
:1003800020A02046E168884700287DD0252806D097
:10039000D4E901219047206A401C2062F1E7002542
:1003A0005F462046E16888472028064607DB312E55
:1003B00005D2B81910F8200C08B10543F1E7A807D9
:1003C00001D525F00405C4F81CA00027C4F818A026
:1003D0002A2E09D030460EF0B1F838B304EB870866
:1003E000303EC8F8186019E059F8041B204604EBA9
:1003F00087029161E1688847012F064618D1E069BC
:10040000002820DA25F020051DE0D8F8180000EBC0
:10041000800006EB40003038C8F818002046E1683C
:10042000884706460EF08AF80028EED1012F0AD040
:100430002E2E08D12046E16888477F1C0646022FF1
:1004400045F02005C4DBA069002803DA404245F0EE
:100450000105A061E80701D025F01005A6B1A6F1BD
:100460004100192802D8203645F400654A46314635
:10047000204625604D46FFF7F3FE60B1012807D006
:10048000ED1D25F0070000E007E000F1080978E71E
:1004900005F1040975E730467AE7206ABDE8F09F68
:1004A00024160A000EF054B840EA010310B59B0769
:1004B0000FD1042A0DD310C808C9121F9C42F8D0CE
:1004C00020BA19BA884201D9012010BD4FF0FF307F
:1004D00010BD1AB1D30703D0521C07E0002010BD95
:1004E00010F8013B11F8014B1B1B07D110F8013B21
:1004F00011F8014B1B1B01D1921EF1D1184610BD02
:1005000040EA0103024630B59B0710D14FF0013499
:1005100000E008C208C91D1B9D4315EAC41FF8D09E
:1005200013F0FF0102F8011B0DD01B0AF8E711F8C8
:10053000013B002B02F8013B05D011F8013B002BD9
:1005400002F8013BF3D130BD10B5431C02E010F8B6
:10055000011B71B18107FAD14FF0013202C88C1A28
:100560008C4314EAC211F9D0C01A0A0603D0C01E87
:1005700010BDC01A10BD0A0401D0801E10BD0902B2
:10058000FCD0401E10BD40EA010370B59B072ED180
:100590004FF00136042A2AD308C810C99D1B9D4379
:1005A000121F15EAC61517D0D8B2E1B2401A50EAA8
:1005B000056110D198B2A1B2401A50EA05410AD1A2
:1005C00023F07F4024F07F41401A50EA052102D1F8
:1005D000180EA0EB146070BDA342DBD018BA21BA8C
:1005E000884201D9012070BD4FF0FF3070BD0AB9BB
:1005F000002070BD10F8013B11F8014B63B1A3421C
:100600000AD1521E08D010F8013B11F8014B1BB162
:10061000A34201D1521EEDD1181B70BD032A40F236
:10062000308010F0030C00F0158011F8013BBCF194
:10063000020F624498BF11F801CB00F8013B38BFAC
:1006400011F8013BA2F1040298BF00F801CB38BFBA
:1006500000F8013B11F0030300F06B80083AC0F092
:10066000088051F8043B083A51F804CBA0E8081080
:10067000F5E7121D5CBF51F8043B40F8043BAFF3B3
:100680000080D20724BF11F8013B11F801CB48BF0D
:1006900011F8012B24BF00F8013B00F801CB48BF43
:1006A00000F8012B7047431A28BF9A427FF6B6AF75
:1006B000032A1044114440F2268010F0030F1EBF9D
:1006C00011F8013D521E00F8013D10F0030F7FF4B8
:1006D000F6AF11F0030300F05C81083AC0F00B8024
:1006E00051F8043D083A51F804CD40F8043D40F873
:1006F00004CDFFF7F3BF121D5CBF51F8043D40F875
:10070000043DAFF30080D20724BF11F8013D11F87A
:1007100001CD48BF11F8012C24BF00F8013D00F8BD
:1007200001CD48BF00F8012C704701B5FFF776FFF7
:1007300001BD10B5203AC0F00B80B1E81850203A46
:10074000A0E81850B1E81850A0E81850BFF4F5AF71
:100750005FEA027C24BFB1E81850A0E8185044BFFB
:1007600018C918C0BDE810405FEA827C24BF51F868
:10077000043B40F8043B08BF7047D20728BF31F85C
:10078000023B48BF11F8012B28BF20F8023B48BFAD
:1007900000F8012B704701F0FF03114601B543EA51
:1007A000032242EA024200F020F901BD02F0FF03F9
:1007B00043EA032242EA024200F017B94FF0000276
:1007C00000B5134694469646203922BFA0E80C5047
:1007D000A0E80C50B1F12001BFF4F7AF090728BF22
:1007E000A0E80C5048BF0CC05DF804EB890028BF9E
:1007F00040F8042B08BF704748BF20F8022B11F0C7
:10080000804F18BF00F8012B704700004FF0013CEB
:1008100050F8042B51F8043B9A4221D1A2EB0C036F
:10082000934313EACC1317D150F8042B51F8043B2F
:100830009A4215D1A2EB0C03934313EACC130BD1CC
:1008400050F8042B51F8043B9A4209D1A2EB0C0357
:10085000934313EACC13DBD04FF00000704700BF86
:10086000D01A01BAB1FA81F101F0180122FA01F0AF
:10087000CB40C1F12001DBB2C0B2C01A2CFA01F3A7
:10088000D11A914311EAC311E6D1704770477047FE
:10089000704770472DE9F0470D4699469246044649
:1008A00000F124080168880604D5E06921F01001F0
:1008B000216000E00120A84201DD471B00E0002785
:1008C000A1697A1902EB0900081AA0612078C00614
:1008D00002D42046AFF30080002608E0D4E90121CD
:1008E0001AF806009047206A401C761C20624E458C
:1008F000F4DB2078C0060AD52046AFF3008006E07E
:10090000D4E9012130209047206A401C2062381E23
:10091000A7F10107F4DC07E0D4E9012118F805008C
:100920009047206A401C2062281EA5F10105F3DCD7
:100930002046AFF300802078000602D50220BDE8F3
:10094000F0870120FBE70000074B70B50D467B44A4
:1009500000F071F80446284600F080F810B14FF01E
:10096000FF3070BD204670BD1BDC0000431A28BF5D
:100970009A427FF6DEAE104410F0030F11441EBF02
:1009800011F8013D521E00F8013D10F0030F7FF4F5
:10099000F6AF103AC0F00A8010B531E91850103A9D
:1009A00020E91850BFF4F9AFBDE81040530724BF49
:1009B00031E9081020E9081044BF51F8043D40F81F
:1009C000043D12F0030F08BF7047D20728BF31F86B
:1009D000023D48BF11F8012C28BF20F8023D48BF56
:1009E00000F8012C70474FF000020429C0F012807B
:1009F00010F0030C3FF4E4AECCF1040CBCF1020F98
:100A000018BF00F8012BA8BF20F8022BA1EB0C01A6
:100A1000FFF7D6BE5FEAC17C24BF00F8012B00F8C7
:100A2000012B48BF00F8012B7047000001694A1CE8
:100A300002610878704700B58FB0CDE9013100211F
:100A4000059105497944CDE9031011466846FFF741
:100A50008DFC0FB000BD0000E5FFFFFF007B00F044
:100A600080007047004870477C447B707546FFF7F4
:100A7000F9FFAE4605006946534620F0070085465B
:100A800018B020B5FFF718FCBDE820404FF0000675
:100A90004FF000074FF000084FF0000B21F0070166
:100AA000AC46ACE8C009ACE8C009ACE8C009ACE8A9
:100AB000C0098D46704710B50446AFF3008020464C
:100AC000BDE81040FFF7E0BB002800DC4042704763
:100AD0007CB507F0A9FB0646002000903346114A7A
:100AE00006210190104801F09FFC0546012415E005
:100AF000C4EBC4000C4A02EB8000B0F90810284691
:100B000007F0A8FB611E094A42F8210052F82100B3
:100B100040F2FF32002106F049FD641C052CE7D9A4
:100B200028467CBD95E40270D4E90B7078417B7057
:100B300010B500240BE0104951F8240006F003FD25
:100B400040F2FF31081A0D4941F82400641C052CBD
:100B5000F1D3002406E0094850F8241008A0FFF75C
:100B6000BDFB641C042CF6D3044850F8241006A0E6
:100B7000FFF7B4FB10BD000078417B708C417B70A7
:100B800025642C307C00000025642C300D0A000008
:100B90002DE9F047044640688EB00027804601F0FA
:100BA0003FFB0090B0F87CA0D0F86890D0F880604F
:100BB000D0F88850C06D00B10768684601F072FB3C
:100BC00005E0696820468847002843D12D68002D3C
:100BD000F7D12068172853D00CDC0F283DD004DC57
:100BE0000B2877D00D2825D18BE0112810D01428A0
:100BF00020D13BE0262846D004DC1E2851D02028F6
:100C000018D18AE02A2816D0B0F5107F12D128E03A
:100C10004046E56801F004FB0290697A39B9297A07
:100C2000012904D130F87C1F41F48071018002A8B1
:100C300001F038FB75E0404601F0F2FA0090E168FF
:100C400011B1C0F8841002E0D0F88400E06068467A
:100C500001F028FB0EB0BDE8F087D7B34046B84797
:100C60005FE0214640460BF0F7FDF3E705A940465B
:100C700000F00BFBE0680699016007994160E9E725
:100C8000C4F80C90E6E7E0680228E3D1CDF83080A4
:100C9000E0680D9027200A900AA9A06808F020FEBD
:100CA000D8E7E068012804D00021404600F0BBFAF4
:100CB000D0E7304607F08BFE68B1304608F036F8D2
:100CC000304607F05DFD98B10121304606F0FCFF8B
:100CD0000EE026E02FE0484608F07AF80646404647
:100CE00001F09EFA0090C0F88060684601F0DAFAE0
:100CF0000121404600F097FA002EABD10020E060C1
:100D0000A8E75FEA0A700CD4E068C06848B1007ACE
:100D100038B1404608F00AF803E0214640460BF09F
:100D2000D6FC2146404606F03AFF002892D02046E5
:100D300007F034F98EE7404601F072FA0090703007
:100D400001F0D2F9684673E7F0B587B0B0F9084012
:100D50000DF10C0C0C9E876945688CE8F000448A04
:100D60000025CDE900150294B0F90C10B0F910502F
:100D7000B0F90E40B0F90A00194410442B4622463F
:100D800000F002F807B0F0BD2DE9F04F8BB09846A7
:100D9000DDE9155691468A468346149F1A9C02F057
:100DA000F1F83348603445F48055CDE90204CDE9CB
:100DB000007543464A465146584607F037F8040046
:100DC0004FD001F02DFA30220490179906F0CEFF93
:100DD0000498282227493430FFF7ABFC049819996E
:100DE000244F4166A0F87C600026C0F88060C6668B
:100DF000083FC0F888607968C16504A801F052FA1C
:100E000005A9204600F041FA1B4841F28271039681
:100E10000094CDE90110BDF91E00BDF91A10BDF90D
:100E20001C20431ABDF918005B1C121A521C06F054
:100E3000FDFF06467868416820468847204601F055
:100E4000EFF90490866604A801F02CFA42F204003F
:100E5000054202D1204607F053F92046189900F0C8
:100E6000F1F903F049FB0BB02046BDE8F08F00001C
:100E7000910B027060012270451402702DE9F0415F
:100E8000044696B0006800F0B7F908B1D94D01E00A
:100E9000D84D2C35606815281ED00CDC0B281FD0CF
:100EA00004DC00287ED005287DD12FE10E287BD0E0
:100EB0001228F9D141E1162806D0172808D01828A1
:100EC00008D01C28F0D109E0E86916B0BDE8F0812F
:100ED000286AFAE7686AF8E7A86AF6E76869F4E753
:100EE00020680B901C200C90206801F099F9039069
:100EF000016D0BA88847064603A801F0D3F9022E1E
:100F00000FDB95E807008DE80700D4E904023346BB
:100F1000A16903F0EDFE20698719A069A0EB06081E
:100F20002CE0286802F0FDFC2169E8690A18521ECD
:100F3000606901F075FDA269E869111A491C6069D0
:100F400001F06EFDD4E904077F1C394601F0B8FDBD
:100F50003946A06901F0B4FD686802F0E2FC20693E
:100F60003946401C01F0ACFDA0693946401E01F035
:100F7000A7FDA0692769A0F10208BF1C286802F03C
:100F8000D0FC42463946606901F04AFD686802F0CB
:100F9000C8FC606942463946401C01F041FD686A60
:100FA000022802E015E1B0E000E10BDDA86802F0E4
:100FB000B8FC61696A6A881C8B180146424638464B
:100FC0005B1E27E0296AB14226DD6069022E0746D2
:100FD00000F1020801DB374401E007F10207206954
:100FE00001DB304401E000F1020022693B460A4483
:100FF0004146A2F1010201F035FE022E02DBA0699A
:10100000821B01E0A269921EA069E9693B46401A71
:101010004146401C01F026FE022E02DB60690644B8
:1010200001E06669B61CE76928687F1E02F079FC5A
:101030003A463146206901F0C5FD3A463146A0697D
:1010400001F0C0FDE7696868BF1E02F06AFC206914
:101050003A463146401C01F0B5FDA0693A4631469A
:10106000401E01F0AFFDE869022802DC286A022870
:1010700023DDA86A022802DDE1690F1A01E0E769B1
:10108000BF1EA86802F04DFCE969022909DD20694C
:101090003B46421800F1020C31466046521E01F0F8
:1010A000E1FD286A022808DDA269E8693B46101ABA
:1010B0003146401C921E01F0D5FD286802F031FC3B
:1010C000D4E90620216901F0ABFC686802F029FC34
:1010D000D4E906202169401E491C521E01F0A0FCE3
:1010E000A86A022811DDA1692669E469A1F1020854
:1010F000271AA41EB61C7F1CA86802F012FC234607
:1011000042463946304601F0ADFD71E0208A00B21A
:10111000ADF81400A18A09B2ADF81610228B12B2F4
:10112000ADF81820A38B1BB2ADF81A302C69ED680E
:10113000CDE9005401F038FC5AE0208A298B08449C
:10114000ADF81400A08AADF81600208B298B401A48
:10115000ADF81800A08BADF81A00206801F060F817
:101160000390006FF0B1022002F05EFC039890F84B
:101170007C10C1F3C00100EB8100006C02F0D1FBD8
:101180000398406B02F0E4FB0398006F01F048F80D
:1011900003990990B1F95A2005A901F049FB09A862
:1011A00001F080F803A801F07DF821E0208AADF875
:1011B0001400A08AADF81600208BADF81800A08BA3
:1011C000ADF81A00A86802F0ACFB05A801F076FDA6
:1011D0000EE0206801F024F8039030F85A1F41F027
:1011E0000C01018003A801F05DF8206807F048FEBB
:1011F00000206AE69C01227038B505004FF000041B
:101200000FD001F0BFFE284601F00AF8009090F8D8
:101210007C00000700D50124684601F043F803F084
:101220006BF9204638BD70B50D46040009D001F0B9
:10123000A9FE294620460BF013FFBDE8704003F0DD
:101240005BB970BD7CB50D4604001DD001F09AFE5F
:10125000204600F0E5FF0090006F0190684601F025
:1012600021F8294601A804F015F858B1204600F0ED
:10127000D7FF009001990167684601F013F82046F6
:1012800007F03CFB03F038F97CBD2DE9F34F85B046
:1012900000270C46B846059800F0C2FF0090C06DCC
:1012A0000121856805982A68904782462A680321AB
:1012B0000598904704902A6802210598904703906A
:1012C0002A680021059890470646009807F096FF87
:1012D0008346009807F099FF8146009890F83210F5
:1012E000890601D5B0F9588000F036F80546009817
:1012F000C06E10B107F056F8074625806780A4F845
:1013000004A0049AABEB020006EB0802401E2A443C
:1013100020813A44E280039BA9EB0302521E6281C2
:10132000A4F80CA020827019E681401E60826846F5
:1013300000F0B8FFB4F90C000190B4F9100002906D
:1013400002AA01A9059800F039F80198A081029835
:10135000208207B0BDE8F08F10B50146002091F85B
:101360003220920607D5B1F95400002803D1486B0A
:1013700001F0A4FD801C10BD70B58CB00C46054674
:1013800000F04EFF0A90C06D86680AA800F08AFF40
:10139000009534B1012C06D0022C0BD0032C04D1C3
:1013A0000AE0182000E0162001907168684688471E
:1013B0000CB070BD1520F7E71720F5E72DE9FC41CB
:1013C00017468846044600F02BFF0090C16D056863
:1013D00068468E6800F066FF32680021204690471C
:1013E0000646204606F05EFF27E000BF00F018FF2B
:1013F0000190B0F900102AB2B0F90430891A9A1A93
:10140000B0F90230A3EB2543B34210D190F8280085
:10141000000605D53868884209DB491E396006E0B8
:10142000D8F80000904202DC521CC8F8002001A845
:1014300000F038FF204606F060FF0400D6D1BDE87A
:10144000FC8100002DE9F0430446406889B0054660
:1014500006F060FF814600F0E3FE0290D0F848807D
:10146000D0F88070466E02A800F01CFF2068172894
:1014700052D008DC0E2839D00F2811D014284BD0B8
:1014800015283CD148E01E281DD01F2829D022282D
:101490003FD0312833D10020E06009B0BDE8F083AF
:1014A0001F494046884503D004F072FD00F07AFFE2
:1014B000002EF2D0D4E902122068CDE90405CDE96E
:1014C000061204A81FE0E0680028E6D02FB1AF4262
:1014D00003D0384607F02AFCDFE7284607F078FCFF
:1014E000DBE72146484606F05AFBD6E7E06841684C
:1014F000002904DD00680928EFD00A2805D05EB174
:101500002046C4F80490B047C7E7284607F094FC8B
:10151000C3E7C4F80C80C0E7204606F03FFDBCE7F7
:10152000EFCDABFF70B505460E46002404F026F85B
:10153000702003F0F1FF04F057F8002003F0ECFFF7
:1015400004F052F804F032F804F018F8712003F0B7
:10155000E3FF04F049F800BF0DE0701EA04204D183
:10156000002003F0A5FF285503E0012003F0A0FFB1
:101570002855601C44B2B442EFD304F017F80020A1
:1015800070BD1CB50024019401AC009400F002F879
:101590001CBD00002DE9F0478046444886B0164641
:1015A00000680E9C1D46027E0F46012A1CD0A8EB47
:1015B0000600791B50EA010323D0A2F101090CF0C7
:1015C000FFFE00F58060824603F0FCFE00FB09F49C
:1015D000504603F0FBFE00FB09F1002C14DAC4F5C1
:1015E00000708012404212E0012003F06DFD2B4696
:1015F000324639464046009409F0A0FC002003F032
:1016000063FD06B0BDE8F08704F50074A012002960
:1016100004DAC1F5007189124C4202E001F5007153
:101620008C12002804DD411C01EBD171491003E04C
:1016300000EBD0714910401E00EBD0704210002C1E
:1016400004DD601C00EBD070401003E004EBD470AC
:101650004010641E04EBD47308EB0104ADF80440A1
:101660003C18ADF80640A8EB02045B10B21AADF8C6
:101670000840ADF80C203144FC1AEA1AADF81010FD
:101680002844ADF80E20ADF812000023ADF80A4052
:101690001A46042101A800F079F83946404609F0BD
:1016A00033FD2946304609F02FFDAAE7700022706D
:1016B000064A13681A7E012A05D0521E02EBD27226
:1016C000521000F005B81A6E526810477000227070
:1016D0002DE9F05F0646884640F2C32002FB00F188
:1016E0004FF47A7091FBF0F702FB02F102EBD2703B
:1016F00001EB600B1446B118234A301B7F1C1268A3
:10170000126E13680A4641469847012538E000BF2B
:1017100005FB05F004FB040159451CDDBC4219DD45
:10172000194B06EB050AA6EB05091B68AAF1010295
:1017300008EB04011B6E09F101001B689847124B6E
:10174000AAF10102A8EB04011B6809F101001B6E5C
:101750001B689847641E0C4B3219301B1B6892465D
:1017600008EB05011B6E81461B689847064B5246E5
:10177000A8EB05011B6848461B6E1B6898476D1C4B
:10178000BD42C5DDBDE8F09F700022702DE9FF4F1E
:1017900043F6FF740F46664283B09B4681460021A4
:1017A0000BE000BF09EB8100B0F90200A04200DAB3
:1017B0000446B04200DD0646491CB942F2DB6748E8
:1017C0000068406900280DD0B0F906101A46A1EB58
:1017D0000B01B14200DA0E46B0F90200801AA042B5
:1017E00000DD0446B4E0DFF878A100200546CAF821
:1017F000000088E0781E854201DA6B1C00E00023BF
:1018000009EB850C09EB8302BCF90200B2F9021066
:10181000A04244D1A14215D139F92330059A39F9B2
:10182000251003EB020C4D4A05981268084404EB9E
:101830000B01126E6045136801DA62462AE0024627
:10184000604627E02846A4464FF000087A1E0BE0C9
:1018500008B1401E00E0781E09EB8003B3F90230A6
:10186000634504D108F101089045F1DB2346A3420A
:1018700048D01A1B39F92500A1EB040C059B92EA0C
:101880000C0F09D4354A184404EB0B011268126E90
:1018900013680246984735E008F010F932E0A1429B
:1018A00030D001DBA04203DDA0422BDBA14229DCCA
:1018B000E04688420ADC0346A04223DC0846A142F7
:1018C00020DBB8F900C0B2F9001008E00B46A142D5
:1018D00018DCA04216DBB2F900C0B8F90010E21A19
:1018E000A1EB0C0151430029A0EB030202DD01EB47
:1018F000620102E0A1EB6201491CC01A91FBF0F009
:101900006044C9E76D1CBD42FFF674AF05980090B6
:1019100004EB0B00019000208046054613E01149BE
:10192000B8F1000F31F915A009D0009901EB0A02B6
:1019300008440A490968096E0B680199984788F0BC
:10194000010850466D1C064909688D42E7DB641C9E
:10195000B4427FF748AF07B0BDE8F08F7000227047
:1019600048032270D4437B700E4810B5006801F024
:10197000CDFF0D48006801F0D4FF012002F036F8D9
:10198000002002F041F8002002F04EF8002001F0A3
:10199000D3FF0648006801F0DBFFBDE810400020DF
:1019A00001F0F6BF6C0022706800227064002270A3
:1019B0002DE9F041034600250026002000220024E6
:1019C000002791F805C00CF00F0591F805C00CF048
:1019D000100CBCF1000F03D091F804C04CEA0505CF
:1019E00091F800C0BCF1000F31D01C6800202BE042
:1019F0004FF0010C0CFA00F2D1F800C00CEA02061C
:101A0000964220D182004FF00F0C0CFA02F7BC4333
:101A100005FA02FC4CEA040491F805C0BCF1280F59
:101A200006D14FF0010C0CFA00FCC3F814C00AE018
:101A300091F805C0BCF1480F05D14FF0010C0CFA2C
:101A400000FCC3F810C0401C0828D1D31C60D1F89A
:101A500000C0BCF1FF0F34D95C6800202EE000F11B
:101A6000080C4FF0010808FA0CF2D1F800C00CEA9B
:101A70000206964221D182004FF00F0C0CFA02F7B9
:101A8000BC4305FA02FC4CEA040491F805C0BCF121
:101A9000280F05D100F1080C08FA0CF8C3F81480DF
:101AA00091F805C0BCF1480F07D100F1080C4FF0C8
:101AB000010808FA0CF8C3F81080401C0828CED39F
:101AC0005C60D1F800C04FEA1C4CBCF1000F3DD067
:101AD000D1F800C04FEA1C4CC1F800C0DFF870C05C
:101AE000DCF8284000202BE04FF0010C0CFA00F24B
:101AF000D1F800C00CEA0206964220D182004FF0D5
:101B00000F0C0CFA02F7BC4305FA02FC4CEA040481
:101B100091F805C0BCF1280F06D14FF0010C0CFA6A
:101B200000FCC3F814C00AE091F805C0BCF1480FEE
:101B300005D14FF0010C0CFA00FCC3F810C0401C9A
:101B40000828D1D3DFF808C0CCF82840BDE8F081E0
:101B500000100240F0B503460C46250CD5B1210C0F
:101B6000002015E001F001057DB1244D2D6B8700AB
:101B70000F26BE40B543214E356335462D6B86009A
:101B800002FA06F635431D4E35634908451CE8B296
:101B90000828E7DB04F47F45B5B1210A002011E0F5
:101BA00001F001055DB15D6A87000F26BE40B543B7
:101BB0005D625D6A860002FA06F635435D62490899
:101BC000451CE8B20828EBDBE5B2ADB1002011E01E
:101BD00001F001055DB11D6A87000F26BE40B543C7
:101BE0001D621D6A860002FA06F635431D62490829
:101BF000451CE8B20828EBDBF0BD000000100240F5
:101C00001CB501211A2005F029F8F02000900220CF
:101C10008DF8040018208DF8050069462148FFF76B
:101C2000C7FE4FF42060009002208DF804001020C1
:101C30008DF8050069461B48FFF7BAFE01200090A9
:101C400002208DF8040010208DF805006946164822
:101C5000FFF7AEFE4FF4A070009002208DF8040054
:101C600010208DF8050069461048FFF7A1FE0E22EE
:101C7000F0210C48FFF76EFF04F00EFC6FF07F4080
:101C8000009003208DF8040018208DF805006946A7
:101C90000548FFF78DFE0E226FF07F410248FFF7E7
:101CA00059FF1CBD0004024000100240000C02401D
:101CB0002DE9F04FDFF828B191B04FF0FF35DBF898
:101CC0000030B3F922100691DE69B3F92490F4696B
:101CD000A189814206D8E289824203D3471AD4F807
:101CE000008012E0D4E9018100296FD00A88824285
:101CF0006CD84D88854269D3801A82B2486800EB5F
:101D00008200B0F90070B0F90250781C5ED0307ECD
:101D1000A17C10FB01FA217CCDE90701B3F92A600F
:101D2000304604F085F9C0B20E90DBF8000007FBE6
:101D30000A81A37C826B0127CDE90412CDE90273ED
:101D4000C069089AC17E807ECDE90001DDE9060305
:101D5000494603F0C1FC681C18D046F0020004F0AC
:101D600067F9DBF80000A37C05FB0A81826BCDE9F3
:101D70000273CDE90412C069089AC17E807ECDE964
:101D80000001DDE90603494603F0A6FCDBF800008C
:101D90005D46C069417E007E814214D9022E12D078
:101DA00086F0040004F044F92868C069027EC37E0E
:101DB00012FB0391437E857E089A06984B4412FBE2
:101DC000050203F015FE0E9804F032F9DBF800006E
:101DD000627C418C1144418411B0BDE8F08F000059
:101DE0007000227004480068C069C06909B1027CB3
:101DF0000A60407C7047000070002270022008805A
:101E00007047C06982898A4202D8C2898A4210D248
:101E1000806880B102888A420DD843888B420AD3F9
:101E2000406800EB8100A0EB8200B0F900000028C0
:101E300001DB012070470020704700002DE9F043CE
:101E4000334C034687B020681946B0F92A60C06950
:101E5000C06900F090F8002853D041680088181A33
:101E600001EBC0053046AF7804F0E2F88146206807
:101E70006A680123816BCDE90237CDE90421C1698C
:101E8000CB7E8A7ECDE900230B7EB0F924102A7820
:101E9000B0F9220003F020FC2068C069417E027E78
:101EA00091421FD9C07E11FB00F812FB00F7022EF1
:101EB00018D000F09EFF064600F064FF01F031FDEF
:101EC00021682A78CB69B1F92200DB7E12FB03027C
:101ED000B1F9241001EB0803394403F089FD3046C1
:101EE00001F01FFD484604F0A3F820686A78C36932
:101EF000B0F922109B7E12FB0311418407B0BDE8AC
:101F0000F08307B03046BDE8F04302F0EBBE0000BE
:101F10007000227070B5114C05460B4620682946AA
:101F2000C069C06900F027F898B14168008824684A
:101F30002A1A0120E46900EBC200085CA47E10FBB1
:101F400004F0002B04D011F8321011FB04F11960D9
:101F500070BDBDE8704003F03FB800007000227013
:101F600001200880704700B5C06900F004F800281F
:101F700000D0012000BD06E002888A4202D84288D3
:101F80008A4202D280680028F6D170472DE9F041DC
:101F90000025144E144C17E02069C5EB051700EB23
:101FA000C7007022001D3168FEF7C3FB20690021C5
:101FB00040F8371000EBC70000F10C018161011DF2
:101FC000C163091D6D1C0164A0688542E4DB0AF051
:101FD00057F92169C0EB001001EBC000001D306013
:101FE000BDE8F081700022705403227070B5104972
:101FF0000E480860084603F045F90D4C143CA068F3
:10200000C0EB0010C500284600F07CF8094B2061A9
:102010002A461B68002198474FF0FF30206002F0ED
:1020200098FABDE870400AF02BB900002DC8027084
:10203000680322703003227010B5040009D000F04C
:10204000A1FF204607F0A0FD044602F055FA204605
:1020500010BD002010BD000038B5054600F092FF0D
:102060002846FFF7E9FF04000AD000F0D9F8064B34
:1020700000902A461B6800219847684600F012F934
:1020800002F03AFA204638BD30032270024A10604E
:1020900021F003005060704760427B7010B504006F
:1020A00011D000F06FFF0848042101EBC401406B20
:1020B0004158486807F020FD20460AF0D5FEBDE8EB
:1020C000104002F019BA10BDA0417B70002808D062
:1020D0000449CA6B026000224260026802B150608B
:1020E000C8637047A0417B7010B5044600F04AFFFA
:1020F0002068FFF7D3FF00202060BDE8104002F009
:10210000FBB900002DE9F04104460AF09FF9284888
:10211000E41C24F00305016C2D1DA94200D90D46D5
:10212000C46B13E054F8042CAA420ED184B1216888
:1021300009B162684A60616809B122680A60C26BCD
:10214000A24231D12168C1632EE02468002CE9D17C
:102150008046816BC0680F1857F8040C3E1A30682F
:1021600038B100200AF0EAFE57F8040C3E1A306835
:10217000D0B97068A84217DB3044441B3046241D98
:102180000AF094FED8F80C10491BC8F80C10D8F8C7
:1021900014102944C8F814107068401B02D031464E
:1021A00007F0AAFC44F8045C2046BDE8F08100007A
:1021B000A0417B7010B500240AF048F90C490F20AB
:1021C00001EBC002526C1AB101EBC000406C08E098
:1021D000401EF5D508E04168A14200D90C46806850
:1021E00010B180680028F6D1A4F10C0010BD0000E9
:1021F000A0417B70002138B10449042202EBC000E9
:10220000496B085841680C3908467047A0417B70FB
:1022100002488169491C816170470000A0417B70C0
:102220000549CA69521CCA61496B01EBC0010A78B1
:10223000521C0A7000F04EB8A0417B7010B500F03F
:10224000A1FEFFF7B7FF64220849B0F5800F04D95B
:1022500090FBF2F4086A444303E0096A4143B1FB8E
:10226000F2F402F049F9204610BD0000A0417B7055
:1022700006490A680649904205D94A68B0EB520FF0
:1022800002D3500800E01046886070475400227066
:1022900060427B7002488169491E8161704700007D
:1022A000A0417B700A4902684B6B52F8082C03EB83
:1022B000C2021378022B03D3CB690BB15B1ECB6137
:1022C0001178491E11700021016008467047000016
:1022D000A0417B700349042202EBC000496B0858FF
:1022E00008307047A0417B70524202F0BEBF000030
:1022F00070B514460D46064600F044FE204600F038
:1023000085FD0300174804EB840109D050F8210033
:1023100041688068711A2A1A184601F029FB1CE0EE
:1023200000EB8104A268B24201D0012200E0002249
:10233000E368AB4201D0012300E000231A430CD034
:10234000236943B150F82100816840686A1A311A44
:10235000184601F097FAC4E90265BDE8704002F042
:10236000CBB80000DC427B7010B5C2B2CBB2D21A3F
:1023700000D5524293B25B43C0F30722C1F3072456
:10238000121B00D55242000C92B2A0EB114002FB8E
:10239000023200B2002801DA404200B280B200FBF3
:1023A000002010BD10B50021084600F09DFD43F649
:1023B000FF725042BDE8104013460146AFF3008063
:1023C0002DE9FC411C4615460E46074600F0DAFD95
:1023D000042003F02DFE804612484069816CC06CD9
:1023E0000F4406440D440444ADF80070ADF80450A9
:1023F000ADF80260ADF80640684606F00DFF07E054
:1024000023462A463146384603F0F2FA06F0B8FE73
:102410000028F5D1404603F00BFE02F06DF8BDE850
:10242000FC8100005C0022702DE9F8431C00DDE90E
:10243000089816460F46054602D105F0F5FE0446FB
:1024400000962E6843464A4621462846B047061E57
:1024500039D005F0DEFE8146698A304605F034FC4D
:10246000304606F065FD484606F062FD4FF0000874
:102470000CE000BFCDF8008055F81CCF00231A46B1
:1024800049462846E04700B306F052FD7F1E002F64
:10249000F0DC1D21484606F0ACFB601C12D000F0B9
:1024A00071FD05F00DFF30B1FFF714FF8469B442F0
:1024B00001D02000F8D1B44202D0304606F088FCAA
:1024C00002F01AF83046BDE8F883304605F0A0FD6A
:1024D0000020F8E72DE9F0411C4616460D46074658
:1024E000022B02DB0020BDE8F0811C20FFF70AFE72
:1024F0000028F8D00DB105610AE0094A52F824100D
:1025000009B905E011460A68002AFBD10969016191
:1025100084618682002101604160C0E90217E2E720
:10252000A800227070B51D46FFF7D4FF040009D043
:1025300000F00EF8E068006820B90348006800EB7E
:1025400085004465204670BD70002270FFF7BEBD57
:1025500070B5C0B38269022A36DA2149531C0C785F
:102560009C4200DA0B701F4C54F8221019B944F841
:10257000220032E019464B68002BFBD106E0CB6805
:10258000C5681B682D68AB4203DD09680029F6D1D8
:102590001AE0C1B1CB68C6681B683668B3420CD17B
:1025A000838A012B05D008E01946DB681B68AB4223
:1025B00003DB0B68002BF7D129B14B6833B11860EE
:1025C0004A68426004E0FFE7012070BD44F8220041
:1025D0004860884200D100210160002070BD0000E9
:1025E000CE002270A800227010B503E00468FFF747
:1025F000AFFF20460028F9D110BD000010B50C4BEC
:102600008269002153F82240844205D1046843F8CE
:102610002240026802B1516042680AB10368136047
:1026200002680AB1436853600160416010BD000058
:10263000A800227000207047022801DB00207047AC
:10264000054951F8200004E0C16809680029F6D066
:1026500000680028F8D17047A80022702DE9F041E9
:10266000044601F06FFF0619164F1FE000F0D2FA82
:102670003868844200DD0446A04600F083FC12481E
:102680000568FFF7C5FD2C0017D000BF01F034FF2F
:10269000641EFBD1404601F045FF1DB100F072FC05
:1026A0006D1EFBD1FFF7F6FD01F026FF01F04AFF9A
:1026B000341A002CDADCBDE8F081404601F032FF2C
:1026C000F0E700000C012270600322702DE9FC4746
:1026D00006005FD000F056FC00F0A2FB3C4C8146A7
:1026E0002068B0F9228000F0CBFB216807468A8C75
:1026F000D01B888441E000BF47F6FF71304602F0EE
:102700004FFC82460146304602F01CFC216805461B
:1027100091F82C0000F00300012841D002283BD0A2
:1027200000204A8C101A4884ADF800006A1E10443C
:10273000ADF80400888CADF80200A9F1010108444D
:10274000ADF806006A465146304602F08BF8216823
:10275000BDF8020088845146304601F0BBFD0644B6
:1027600030780A281ED00D281CD0BDF80000216842
:1027700028444884307818B1761C30780028BBD1C2
:102780002068818C39448184818D21F00301818509
:1027900001F0B2FEBDE8FC8705EBD5704010C0E744
:1027A0002846BEE7206890F82C1001F003010129AB
:1027B0000BD0022909D0018C418431780A29D9D162
:1027C000828C02EB09018184D4E7A0F82280F4E72F
:1027D0007000227070B514460D46064600F0D2FB1C
:1027E00005480068458484843046FFF76FFFBDE8E4
:1027F000704001F081BE0000700022702DE9F041B0
:1028000007460A4815460E460068B0F92C0040F00D
:10281000020001F0F9F804462A4631463846FFF72F
:10282000D9FF2046BDE8F04101F0EEB870002270FB
:1028300047F6FF73AFF300802DE9FC411F46904639
:102840000D4606004FF000041AD000F09BFB65B166
:10285000284606F05DFB040007D00246294668467C
:1028600002F008FC684606F053FB3B464246294608
:10287000304602F04FF8204606F04AFB01F03CFEDD
:10288000BDE8FC811CB50A460146684602F0EDFC35
:1028900000F078FB2548BDF80010006830F8482F9C
:1028A0001144ADF80010BDF8021082881144ADF853
:1028B0000210BDF8041002881144ADF80410BDF8F0
:1028C000061080880844ADF80600684606F0A4FCAF
:1028D00027E000BFBDF900400BE000BFBDF90210CA
:1028E000204603F027F8BDF90610204603F022F831
:1028F000A41CBDF90400A042F0DABDF902400AE0D0
:10290000BDF90000214603F015F8BDF90400214689
:1029100003F010F8A41CBDF90600A042F0DA06F09E
:102920002FFC0028D6D101F0E7FD1CBD70002270FD
:102930002DE9F04F87B09B46DDE9109892460C4692
:10294000054600F01FFB16480168886CC96C4719E2
:102950000E1900EB0A0501EB0B04ADF81070ADF891
:102960001450ADF81260ADF8164004A806F054FCFF
:1029700088B1DFF830B04FF0000ACDE90098CDE91A
:1029800002BA2B4622463946304608F023FA06F0B2
:10299000F7FB0028F1D101F0AFFD07B0BDE8F08FE3
:1029A000700022709D5902702DE9F04F87B09B4650
:1029B000DDE9109892460C46054600F0E3FA164809
:1029C0000168886CC96C47190E1900EB0A0501EB08
:1029D0000B04ADF81070ADF81450ADF81260ADF8FE
:1029E000164004A806F018FC88B1DFF830B04FF0AC
:1029F000010ACDE90098CDE902BA23462A463146BC
:102A0000384608F0E7F906F0BBFB0028F1D101F0E9
:102A100073FD07B0BDE8F08F70002270DD580270C2
:102A20002DE9FC4114460D46064600F0ABFA114F65
:102A30003968886CC96C054404440E44ADF80050F4
:102A4000ADF80440ADF80260ADF80660684606F0E7
:102A5000E3FB08E0386822463146006E03682846EA
:102A6000984706F08DFB0028F4D101F045FDBDE844
:102A7000FC810000700022702DE9F0411C461546D3
:102A80000E46074600F07EFA0C480168886CC96C57
:102A9000074405440E440C44002006F0BDFB07E04B
:102AA00023462A4631463846FEF76BFD06F068FBA2
:102AB0000028F5D1BDE8F04101F01EBD7000227084
:102AC0007CB50C46064600F05DFA0F4D2868816C17
:102AD000C06C0E440444ADF80460ADF80060ADF87D
:102AE0000640ADF80240684606F096FB07E028680D
:102AF0002146006E42683046904706F041FB0028B0
:102B0000F5D101F0F9FC7CBD700022702DE9FF4F7A
:102B100083B0984615460E46074600F033FA284C17
:102B20002268916C107ECB190393D26C01EB050ADD
:102B3000401E191AADF800100AEB000102EB060B5B
:102B4000ADF80410ABEB000102EB08094844ADF806
:102B50000600ADF80210684606F05EFB29E0184852
:102B60000068047E012C1CD9601E00EBD070039914
:102B7000ABEB6007A1EB60080AEB600609EB6005B0
:102B80002B4632463946404608F04FFB08F1010813
:102B9000641EA5F10105A6F1010607F10107EFD1B9
:102BA00005E04B4652465946039808F03EFB06F0B6
:102BB000E7FA0028D3D101F09FFC07B0BDE8F08F01
:102BC000700022707CB514460D46064600F0DAF916
:102BD0000F480068816CC06C0E4405440444ADF895
:102BE0000060ADF80460ADF80250ADF806406846EC
:102BF00006F012FB06E022462946304602F0CEFEE1
:102C000006F0BEFA0028F6D101F076FC7CBD00008B
:102C10007000227010B5002400E0012400F004F8D8
:102C20000028FAD1204610BD0B4810B500680024DA
:102C300010B1804700B1012405F074FA00B10124FD
:102C40000648006810B1804700B1012404480068BC
:102C500000B18047204610BD7C002270B400227075
:102C6000740022702DE9FC411C4615460E460746AD
:102C700000F088F910480068816CC06C0F4406446D
:102C80000D440444ADF80070ADF80450ADF8026096
:102C9000ADF80640684606F0BFFA07E023462A462C
:102CA0003146384602F0A4FE06F06AFA0028F5D153
:102CB00001F022FCBDE8FC8170002270B0F9063002
:102CC000B0F90420B0F90210B0F90000FFF7CABF54
:102CD00008B50B46002805D0009281888268C0881C
:102CE00000F001F808BD10B50828029C30D008DCBF
:102CF00004FB01F401280AD0022813D0042804D1CF
:102D00001CE0102828D020282CD0002010BD04EB77
:102D1000D30003F00701105CC1F10701C84000F0C7
:102D2000010010BD04EB93000621105C01EA430191
:102D3000C1F10601C84000F0030010BD04EB5300D0
:102D4000D907105C02D000F00F0010BD000910BDC3
:102D500004FB0130105C10BD481004FB003032F859
:102D6000100010BD881004FB003052F8200010BD88
:102D7000034951F82000C1688A6A08211047000001
:102D8000A800227010B500F0FDF802F091FE02F0EC
:102D900053FF044601F0B0FB204610BD10B50446B9
:102DA00000F0F0F8054800210068C069426820463C
:102DB0009047044601F0A0FB204610BD7000227031
:102DC00070B50C46054600F0DDF80648214600685F
:102DD000C069426828469047044601F08DFB2046B2
:102DE00070BD000070002270002801D005F0EEB91F
:102DF000704710B500F0C6F802F062FE02F01CFF4A
:102E0000044601F079FB204610BD00000021022895
:102E100002D2024951F82010084670474C03227034
:102E200010B500F0AFF804480068C069447E01F0B6
:102E300063FB204610BD00007000227070B515467F
:102E40000E46044600F09EF82A463146204602F01F
:102E500071FE040002D000203060286001F04CFBBD
:102E6000204670BD70B50C46054600F08BF8214633
:102E7000284602F0B7F8BDE8704001F03DBB000005
:102E800010B5002400F07EF80B48006890F82C1074
:102E900001F00C01042904D0082906D00C2907D11F
:102EA00003E0C069047E641E02E0C069007E44083D
:102EB00001F022FB204610BD70002270017EC07E12
:102EC00011FB00F070470000024951F82000006932
:102ED00000687047A8002270024951F8200000697C
:102EE00040687047A800227070B50C46054600F097
:102EF00049F8044800684584848401F0FDFA002004
:102F000070BD00007000227070B501F0DBFB1B4C3F
:102F10002E20207001F01CFB194809F053FA02F032
:102F2000A5FE054602F038FEC0B1002602F048FEBC
:102F3000B0B10020064307D002F04BFE064602F077
:102F400034FE314603F06EF80021084600F02EFDF5
:102F500005F026FCFFF71AF8606B09E00126E5E7AB
:102F60000120E7E7006800B18047606B406860635C
:102F70000028F7D10120A070284670BD5C002270A7
:102F80006C427B7070B5184CE06820B101F0D7FA44
:102F90006168884204D001F0DDFA01F0D0FA606087
:102FA000E068401CE06001281CD109F069F9054681
:102FB0002068854216D0002813DBFFF73BFB014653
:102FC0002068C0EB0012206900EBC2025167C5EB1C
:102FD0000511064A00EBC100011D1160406FFFF7AB
:102FE00003FB256070BD0000540322707000227046
:102FF0001CB5040004D10E480068C46D002C16D026
:10300000FFF7C0FF2046FFF70BF9009044696846C0
:10301000FFF748F94CB12046FFF702F901908168AB
:103020008968884701A8FFF73DF901F065FA1CBDE2
:103030007000227001490A4600F002B801F0FFFF5B
:103040002DE9F04387B015460C465FEA000846D0EC
:10305000FFF798FF002000F06FFC814621480068D0
:10306000C66D4046FFF7DCF800900068806900F00C
:1030700031FC074640F6FF70C44204D10098B0F915
:103080000440B0F906500098611E0289ADF8044072
:103090001144ADF808104189681E0844ADF8065087
:1030A000ADF80A0004F06AFE6846FFF7FBF801A8D5
:1030B00006F0B2F806E02A462146404600F0D0FA73
:1030C00006F05EF80028F6D1384600F003FC3046E2
:1030D00000F090F9484600F02FFC01F00DFA07B01F
:1030E000BDE8F083700022702DE9FE4F98469146AE
:1030F0008A46834600270C9EFFF744FF184819496B
:103100000068407C51F82040E1680968042903D038
:103110002468002CF8D100E01CB9FFF78DFA041EDA
:103120001BD0E0680121C26A20469047050011D0FB
:103130002469A0688047401C02D10B4C46F0010670
:103140000096CDE9015443464A465146584600F0A0
:10315000E5F9074601F0D0F93846BDE8FE8F0000DA
:1031600070002270A800227048100C7038B504005E
:103170001CD0FFF707FF0E480068C06DA04201D1C8
:1031800000F09AFB2046FFF74BF80090406908B129
:1031900001F09BF900980068FFF7D8F96846FFF73F
:1031A00081F82046FEF77AFF01F0A6F938BD00004D
:1031B000700022702DE9FF4F83B09A468B46074678
:1031C000FFF7E0FEDFF83891D9F80000447C4D4865
:1031D00000570128204606DD02F0E4FC05462046A3
:1031E00002F0F4FC05E002F0C6FC0546204602F0C1
:1031F000C8FC04461FB302A901A8FFF733FEB7F9C4
:103200000000002800DA0020B7F902608046002E96
:1032100000DA002601984119B7F90400491E09F0A7
:1032200011FA054602980119B7F90600491E09F07E
:1032300009FAA5EB0802841B521C641C03E04FF042
:10324000000846462A46BAF1000F01D1C4F1000A2F
:10325000002A51DD002C4FDD109800905346314676
:103260004046FFF741FF5FEA000A10D000F07CF80B
:103270000746A04206D0D9F80000406C10B13221B8
:1032800006F05AFB504600F0B5F8002523E05946F9
:103290000598884701F030F9012007B0BDE8F08FAC
:1032A000611BB94202DA504600F088F83DB172194C
:1032B0004146504600F0C6F85046FFF799FE594681
:1032C000059888471048016809B100208847504692
:1032D000FFF7B0FE3D44A542E2DB5046FFF746FF54
:1032E000002000F087F8A74206D0D9F80000406C13
:1032F00010B1332106F020FB01F0FEF80020CCE7EE
:1033000070002270CC002270E003227038B50500F6
:103310004FF0000411D0FFF735FE2846FEF780FF7E
:103320000090006800698068804703F08BF80446CD
:103330006846FEF7B7FF01F0DFF8204638BD38B524
:1033400004000ED0FFF71EFE2046FEF769FF00F1D5
:10335000180400906846FEF7A5FF01F0CDF820465E
:1033600038BD002038BD000038B504460025FFF701
:1033700009FE1CB908480068C46D44B12046FEF738
:103380004FFF0090B0F90A506846FEF78BFF01F03E
:10339000B3F8284638BD00007000227070B50546AD
:1033A0000024284606F0D2FD641C18B1BDE8704028
:1033B00000F07AB8052CF4DB70BD000038B50C467F
:1033C000050004D10A480068C56D002D0FD0FFF735
:1033D000D9FD2846FEF724FF0090B0F90A10A1425B
:1033E00000DD44816846FEF75DFF01F085F838BDD9
:1033F00070002270F8B50546FFF7C4FD104E306826
:10340000C46DCDB10CB100F057FA04F0B7FD2846F9
:10341000FEF706FF00903168CD650068FFF798F869
:103420006846FEF73FFF02F075FE02F0DBFD00BFCD
:1034300001F062F82046F8BD00F03EFAF8E700001F
:10344000700022707CB515460E46040004D1154864
:103450000068C46D002C24D0FFF794FD2046FEF7D1
:10346000DFFE2DB20090C58034B2848002F0BAFD38
:103470000098406980B1FEF7D3FE009A0190B2F93E
:1034800008108180B2F90A20C28011B10AB104800B
:10349000458001A8FEF706FF6846FEF703FF01F02E
:1034A0002BF87CBD7000227001490A4600F002B87A
:1034B00001F0FFFF7FB515460C4606002DD0FFF743
:1034C00061FD3046FEF7ACFE40F6FF710190CC4244
:1034D00003D1B0F90440B0F906500289611E1144CD
:1034E000ADF80840ADF80C104189681E0844ADF8ED
:1034F0000E00ADF80A5001A8FEF7D4FE02A805F0B0
:103500008BFE06E02A462146304600F091F805F091
:1035100037FE0028F6D100F0EFFF7FBD2DE9FF4F09
:10352000DFF8E8B083B01C46DBF80010DDE910607E
:1035300092464FF000084B7C42461299FEF7CAFFB4
:10354000050060D028698068804702F07BFF8146D3
:103550000AFB09F1C91DCF08FEF770FEF10705D17E
:10356000C11700EB9170801000EB4000002C09DCCB
:103570001FB11838B0FBF7F000E000206442A04211
:1035800000DC0446F00707D10090DDE90301234683
:10359000524600F01FFF8046002C03DC2846FEF751
:1035A000D5FF30E004FB07F01830F10702D0FEF73A
:1035B00043FD01E0FEF750FD06001CD0FEF730FE93
:1035C00001900560039981800499C180A0F808A04A
:1035D0004481C0F81480C0E9037901A8FEF762FEB7
:1035E0001298AE602861DBF80000407CA86130468C
:1035F00007B0BDE8F08F2846FEF7A8FFB8F100003D
:1036000001D0FEF74BFD0020F2E7000070002270B1
:10361000054B30B41B68054C5B7C54F823301B69A8
:1036200030BC0AF061BA000070002270A80022705D
:10363000F8B515460E460746FEF7F2FD0090006805
:103640001621C068426A0020904704466846FEF78B
:1036500029FE002C03D02A4631463846A047F8BD43
:10366000F8B516460F46050012D0FEF7D9FD0090BA
:1036700044696846FEF716FE2846FFF747FE0346F4
:10368000082800DD2CB13246394628460AF0F6FA01
:10369000F8BD3246394628460AF090FCF8BD10B510
:1036A000002821D009B30AB3B1F90040B2F90030C3
:1036B0009C4200DA23460380B1F90240B2F902309D
:1036C0009C4200DA23464380B1F90440B2F9043049
:1036D0009C4200DD23468380B1F90610B2F9062032
:1036E000914200DC1146C18010BD11460A6802609B
:1036F0004968416010BD00280BD003880B4403804B
:10370000838819448180418811444180C1881144D3
:10371000C180704770B50E4D0446D5E9000188425E
:1037200009D10C49884201D13C3000E00C3807C86F
:1037300084E8070006E090E80E0084E80E0008F038
:10374000F5FD2860207A002800D0012070BD00001F
:10375000EC00227074437B700448D0E90010814271
:1037600001D101207047002070470000EC0022705A
:1037700010B509490446086820B908480860084699
:1037800001F080FD07490648086020460AF03EF92E
:10379000BDE8104000F058B9FC00227065C7027007
:1037A000D5830270B800227070B50025FFF7EAFBE0
:1037B000094CD4E9002082420AD0D2E900561046D2
:1037C00008F0BEFD20603146284605F023F90125AA
:1037D00000F092FE284670BDDC0022702DE9FC410D
:1037E000154DDDE908742D68B5F90860864200DDE5
:1037F0003046B5F90C60964200DA3246824219DB57
:10380000B5F90A608E4200DD3146B5F90E509D4291
:1038100000DA2B468B420DDB00E02C46E5682D6874
:1038200025B1042D02D02568002DF6D1CDE9007414
:1038300002F0C2FABDE8FC8170002270B0F90220EB
:10384000B1F906309A4213DCB1F90220B0F9063022
:103850009A420DDCB0F90020B1F904309A4207DC3D
:10386000B1F90010B0F90400814201DC0120704779
:10387000002070470146024870220068FCF759BFDB
:103880007000227070B515460E4604000AD0FFF78E
:1038900079FB2A463146204609F00AFEBDE8704011
:1038A00000F02ABE70BD0000024970220968FCF7D2
:1038B00040BF00007000227010B5FFF763FB02F0FC
:1038C00047FB02F027FC04F059FABDE8104000F075
:1038D00013BE000070B50B4D04462868467CFFF708
:1038E00051FB022C09D22046FEF7A6FE28B128681B
:1038F0004474FFF7E1FF0448046000F0FDFD30462A
:1039000070BD0000700022708C02227010B5044659
:10391000FFF738FB204602F03BFBBDE8104000F00B
:10392000EBBD10B50446FFF72DFB204602F068FB07
:10393000BDE8104000F0E0BD10B50446FFF722FBE3
:10394000204602F075FB044600F0D6FD204610BD6F
:1039500070B50446FFF716FB04480068C56904B15A
:10396000C46100F0C9FD284670BD000070002270DF
:1039700070B514460D460646FFF704FB224629465D
:10398000304602F071FB044600F0B6FD204670BDE3
:1039900070B50546FFF7F6FA03480068847E857621
:1039A00000F0AAFD204670BD7000227070B50C4674
:1039B0000546FFF7E7FA09482246058008480480D3
:1039C00008480068417C084850F82100C1680B6A2B
:1039D00029469847BDE8704000F08EBDD4002270A3
:1039E000D600227070002270A800227070B50546C3
:1039F000FFF7C8FA03480068047E057600F07CFDF6
:103A0000204670BD7000227070B50446FFF7BAFA08
:103A100004480068B0F92C50848500F06DFD2846FC
:103A200070BD00007000227070B50446FFF7AAFA5E
:103A300004480068B0F92A50448500F05DFD28462E
:103A400070BD00007000227002480068002800D09D
:103A500000477047A40322700249CA6802B9C860CF
:103A6000FFF7F2BFDC00227010B504000ED0FFF7A4
:103A700089FA204609F034FA20460AF005F8204673
:103A8000FEF70CFBBDE8104000F036BD10BD38B5A8
:103A90000C46050011D0FFF775FA2846FEF7C0FB6B
:103AA00000908089204201D0012400E00024684673
:103AB000FEF7F8FB00F020FD00E00124204638BDB1
:103AC00038B50546002028600648046844B1204601
:103AD000FEF7A6FB0090006928606846FEF7E2FB4F
:103AE000204638BD7003227038B504004FF0000046
:103AF0000D46086011D02046FEF792FB00908468C6
:103B000044B16846FEF7CEFB2046FEF789FB0090E5
:103B1000006928606846FEF7C5FB204638BD0000F6
:103B20002DE9F04F00242DED028B9BB0DFF800B49F
:103B3000DDE9266ADDF8A090A6469FEDFE0ACBF8E7
:103B40000040022839D009AD6F460DF10C0C032856
:103B50007EDB00BF4FF0000469D100BF53F8248022
:103B600000EE108A0DF1180808EB8408B8EEC00AC0
:103B700088ED000A56F8248000EE108A05EB8408D0
:103B8000B8EEC00A88ED000A51F8248000EE108AD1
:103B900007EB8408B8EEC00A88ED000A52F82480CA
:103BA00000EE108A0CEB840804F10104B8EEC00AA0
:103BB000844288ED000AD1DB42E148680968401A76
:103BC00000EE900AD3E90010F8EEE01A401A00EE79
:103BD000900AD948F8EEE00A81EEA01A00EE901A99
:103BE000F8EEE00A80ED001A61EE600A80ED010A4D
:103BF000C0ED020A80ED030A51681268891A00EECE
:103C0000101AD6E90012B8EEC01A521A00EE102AA5
:103C1000B8EEC00AC1EE000A00EE101AB8EEC00AF3
:103C2000C0ED040A20EEC00A80ED050A92E10CEB1B
:103C3000840888ED000A07EB840888ED000A05EB8C
:103C4000840888ED000A0DF1180808EB840800E0EC
:103C5000B5E1641C88ED000A032CE8DB002794E042
:103C600053F82750DDED080A00EE105AB8EEC00AEE
:103C700030EE800A8DED080A56F82740DDED0B0A7C
:103C800000EE104AB8EEC00A30EE800A8DED0B0A45
:103C900051F82780DDED020A00EE108AB8EEC00A66
:103CA00030EE800A8DED020A52F827C0DDED050ADC
:103CB00000EE10CA7F1CB8EEC00A30EE800A8DED0F
:103CC000050A00EE105ADDED060AB8EEC01A00EE45
:103CD000105AB8EEC00A41EE000A00EE105AB8EED3
:103CE000C01A00EE104ACDED060ADDED070AB8EE67
:103CF000C00A41EE000A00EE104AB8EEC01A00EE0B
:103D0000104ACDED070ACDED090AB8EEC00ADDED87
:103D10000A0A41EE000A00EE105AB8EEC01A00EE90
:103D2000108ACDED0A0ADDED000AB8EEC00A41EEB8
:103D3000000A00EE104AB8EEC01A00EE108ACDED6F
:103D4000000ADDED010AB8EEC00A41EE000A00EEFD
:103D5000105AB8EEC01A00EE10CACDED010ADDED22
:103D6000030AB8EEC00A41EE000A00EE104AB8EEAF
:103D7000C01A00EE10CACDED030ADDED040AB8EE5C
:103D8000C00A41EE000ACDED040A8742FFF668AF93
:103D9000DDED060A9DED080A80EE801A8DED061A0B
:103DA0009DED071ADDED0B0AC1EE201ACDED071AC5
:103DB0009DED091AC1EE001ACDED091A9DED0A1A02
:103DC000C1EE201ACDED0A1A9DED001AC1EE001ABF
:103DD000CDED001A9DED011AC1EE201ACDED011AAC
:103DE0009DED031AC1EE001ACDED031A9DED041AE4
:103DF000C1EE201A01EE100AB8EEC11ACDED041A78
:103E0000C0EE011A00EE100AB8EEC00A80EE801A69
:103E100000EE100ACDED081AB8EEC00A8DED0B1AAF
:103E2000DDED020A80EE801A00EE100AB8EEC00A3C
:103E30008DED021ADDED050A80EE801A8DED051A72
:103E4000DDED061ADDED080A9DED0A5A9DED0B2AFF
:103E500071EEE05A9DED071A75EE424A9DED093A62
:103E600031EE604A25EEA40A73EE423A04EE630A8C
:103E7000B5EEC00AF1EE10FA04D3B5EEC00AF1EEC9
:103E800010FA6BDDDDED006ADDED022A9DED016AC1
:103E9000294836EEE27A76EE627A27EE248A07EE39
:103EA000E38A67EEA57A47EE447AC8EE008A87EE89
:103EB000807AC0ED008A80ED017A20EE867A01EEEC
:103EC000627A61EEA22A40EEE62A27EE037A05EE38
:103ED000227A61EE262A41EEC62A02EE227AC7EE47
:103EE000002AC0ED022A9DED036ADDED052A76EE7B
:103EF000626A66EEA47ADDED044A34EEE27A47EEB9
:103F0000637AC7EE803AC0ED033A67EE253A46EE93
:103F1000C43A83EE804A60EEA43A41EE623A61EE22
:103F2000A22A40EEC62A23EE833A80ED044A05E039
:103F30008803227000000000F8437B7061EE060ADF
:103F400005EE223A41EEE40A02EE203AC3EE000A00
:103F5000C0ED050A0120CBF8000002E0BEF1000F21
:103F60002DD05C460021C4E901A9084608F00EFBEB
:103F70000021E060084608F037FB2061A9F101014B
:103F8000AAF1010008F002FB6061A9F10101AAF1A8
:103F9000010008F029FBA0616269E168914201DD3E
:103FA000E26061612169814201DDA16120612068D7
:103FB00028B100201BB0BDEC028BBDE8F08F0120C2
:103FC000F8E700002DE9FE43DFF8B89005000A9EEF
:103FD000D9F814C04FF00000CCF3410709F13004C8
:103FE00039D0012D02D00120BDE8FE83DFF8948096
:103FF00008F12008C8E90012052131EA0C013ED081
:10400000012F3CD0C4E90036012199F80030A940C5
:104010004A46194201D00023137013781943C9B2DC
:1040200089F800100329DFD1174E3068407C01F079
:10403000B9FD05463068407C01F0C8FD114B009485
:10404000CDE901502833A3F10802A2F108010220B2
:10405000FFF766FDC8E7DFF82C80032F08F118088A
:10406000C8E9001208F1100106D00CF00502012A7F
:1040700002D0C1E90036C7E7C1E90063C4E7C4E97B
:104080000063C1E7100122707000227010B50B466A
:10409000044600F091F8216800290BDB1A68002A19
:1040A00008DB054B5C68A14204DA99688A4201DAB0
:1040B000002800D0012010BD8803227070B5254C67
:1040C00086B06078F8B100F0B9F8E06000F0B4F8BC
:1040D000E06803902069049000F03EF88DF8090034
:1040E00004A903A8FFF7D2FF0025B0B1A07870B3F0
:1040F00060680090A06801908DF80850684600F054
:1041000031F8A57023E000F0C9F8206100F095F8BF
:104110006078401C607006B070BD039A6068111A28
:1041200000D54942049BA068181A00D54042A678E1
:1041300016B1084402280ADD62600092A3600126DD
:1041400001938DF80860684600F00CF8A670657061
:10415000E1E70000100122700148407A704700003A
:1041600010447B703EB504460C221149FCF79CF9C3
:10417000002813D00F480E4D026882B194E80B005E
:104180008DE80B00684601A990479DE80E0085E880
:104190000E00002802D16846FFF7EAFA3EBD20462D
:1041A000FFF7E6FA94E8070085E807003EBD000047
:1041B000EC437B70840322701D4A1268A2B390ED19
:1041C000000A1C4AD1ED000AF8EEC01A92ED001A5E
:1041D000B8EEE02AB8EEC00A21EE211AD2ED011A9B
:1041E000F8EEE00A01EE821AD2ED021A71EE211AFF
:1041F000B6EE001A71EE811AFDEEE11AC0ED001A5A
:10420000D2ED031A002021EE800AD2ED041A01EE4D
:10421000A00AD2ED050A30EE200A30EE010ABDEE0A
:10422000C00A81ED000A7047FFE70120FBE70000AC
:1042300088032270F8437B707047704700B50721F0
:104240001348FDF76FF91248807800F00F0001283D
:1042500014D10F4880790E49497901F00F0140EAE5
:1042600001200C4908800A4800790949C97801F001
:104270000F0140EA01200849088005E04FF47A70F8
:1042800005490880034908800348008800BD0000F4
:104290005504227006002270080022700148008830
:1042A00070470000060022702DE9F041084E0446D8
:1042B00005683068016828468847074630684168C5
:1042C00028468847284420603846BDE8F081000031
:1042D000780022702DE9F0410C4606460025064F75
:1042E00005E0386841683046884706440544641E46
:1042F000F7D22846BDE8F081780022702DE9F04120
:104300001E46069C1746884605463A46A8687F1C06
:104310003346D0F804C041462846E047641EF4D135
:10432000BDE8F08170B5B0F90040091BB0F9044058
:104330008C422CDD00F11404B0F902500069521BCC
:1043400002FB0040CA1800EBE104521ED010B0EB93
:10435000E10501F007034FF0FF0102F0070221FA27
:1043600003F0C2F1070201FA02F1CEB221780FD0B8
:1043700001436D1E04F8011B002D05DDFF222946B7
:104380002046FCF713FA2C4420783043207070BD8F
:1043900030400143217070BD10B5B0F90030B0F964
:1043A0000240C91A00F114030069121B02FB00301D
:1043B00000EBE10001F0070302788021D9400A43B5
:1043C000027010BDB0F90610026951431430FCF7B9
:1043D000F5B900002DE9F843804602F10F00001105
:1043E000470003FB07F01C46154689461430FDF7CD
:1043F00033FE060018D0FEF7C5FD3046FDF710FF6E
:104400000090A0F80080A0F802908580C480074941
:1044100081600121818107616846FDF743FF00F05B
:104420006BF83046BDE8F8830020FBE76C190C7090
:1044300070B5B0F90660B0F904400B6800F11405DE
:1044400096421BDD0069A34202FB005000EBE30231
:1044500014DA641EE010A0EBE30512F8010B03F080
:104460000704A040C4B206E045B1083312F8014B7E
:1044700023F007036D1E002CF6D004E0002070BD71
:104480006006040E5B1C2006FAD5FF2C07D01846E8
:1044900002E06406240E401C6606FAD400E0D81D33
:1044A000C443640705D006E012F8014BFF2C09D184
:1044B00008306D1EF8D5C01A401C0B6070BD620636
:1044C000140E401C2206FAD4F5E738B50546FEF76F
:1044D00059FD2846FDF7A4FE00908189491E0CB2C3
:1044E00084816846FDF7DEFE14B92846FDF7D6FD47
:1044F00000F002F838BD00000348C168491EC160E1
:1045000001D100F028B870475403227010B54FF461
:1045100080010348FDF7BAFD8020FDF7A9FE10BD1C
:1045200078413B70044A1268111800BF024A1268B1
:104530008A1AFBD1704700003000227070470120BA
:10454000704700000148006870470000300022708A
:1045500070477047704770470EB508B102AA00E077
:104560000022002301A9684600F09EFC0EBD000059
:10457000074910B50C7818B101200870801E03E0BF
:10458000002008706FF07F4001F090F8204610BDC9
:104590005D00227010B5082A0EDC0346012A18D0EF
:1045A000022A56D0042A76D010F8042B03F8012BE7
:1045B000491EF9D1012010BD102A08DC4FEA000283
:1045C00030F8043B22F8023B491EF9D1F2E7002003
:1045D00010BD10F8042BD207120E491E34D010F86B
:1045E000044B491E04F0010442EA84122CD010F856
:1045F000044B491E04F0010442EA441224D010F88E
:10460000044B491E04F0010442EA04121CD010F8C5
:10461000044B491E04F0010442EAC40214D010F80D
:10462000044B491E04F0010442EA84020CD010F845
:10463000044B491E04F0010442EA440204D010F87D
:10464000044B04F00104224303F8012B0029C0D1DC
:10465000B0E710F8042B9207120E491E15D010F87F
:10466000044B491E04F0030442EA04120DD010F872
:10467000044B491E04F0030442EA840205D010F8FA
:10468000044B04F003042243491E03F8012B0029C4
:10469000DFD18FE7FFE710F8042B1207120E491E37
:1046A00005D010F8044B04F00F042243491E03F810
:1046B000012B0029EFD17DE738B50024009400F0EC
:1046C0001DF838BD0B4810B5816B002910D10121B0
:1046D0008163FFF71BFFFDF789FC01F04BFD0549E6
:1046E00005483C310860BDE81040084600F0CABDEE
:1046F00010BD00005C0022702DC702702DE9F04152
:104700000D460699044601B901461F68082A09DCCE
:104710000E46012A1AD0022A5BD0042A7DD0082A2C
:1047200013D18DE0102A07DCD3F810C00E46BCF17F
:10473000000F04D0022389E00020BDE8F08101CC05
:10474000B84726F8020B6D1EF9D189E001CCB847B5
:10475000C0074FEA10686D1E36D001CCB84748EA52
:10476000801000F0FF086D1E2ED001CCB84748EA3B
:10477000401000F0FF086D1E26D001CCB84748EA73
:10478000001000F0FF086D1E1ED001CCB84748EAAB
:10479000C00000F0FF086D1E16D001CCB84748EAF3
:1047A000800000F0FF086D1E0ED001CCB84748EA2B
:1047B000400000F0FF086D1E06D001CCB84740EA6B
:1047C000080000F0FF086D1E06F8018B002DBDD11A
:1047D00046E001CCB84780074FEA10686D1E16D03E
:1047E00001CCB84748EA001000F0FF086D1E0ED05B
:1047F00001CCB84748EA800000F0FF086D1E06D0E3
:1048000001CCB84740EA080000F0FF086D1E06F82A
:10481000018B002DDDD123E0FFE701CCB847000775
:104820004FEA10686D1E06D001CCB84740EA080078
:1048300000F0FF086D1E06F8018B002DEDD10FE092
:10484000D3F810C0BCF1000F04D001232A46204643
:10485000E04705E001CCB84706F8010B6D1EF9D121
:1048600001206AE77CB5064628480D46006868B115
:10487000002004F0D1FC06E06A462946304605F0E7
:1048800031FC04F07DFC0028F6D17CBD106800905E
:104890001F4C506801902268BDF8000032F8481F94
:1048A0000844ADF80000BDF8020091880844ADF856
:1048B0000200BDF8040011880844ADF80400BDF8FA
:1048C000060091880844ADF80600684604F0A4FC90
:1048D0000EE000BF2068BDF800106A464184BDF8B4
:1048E000021081842946304605F0FCFB04F048FCA8
:1048F0000028EFD1206830F8221FC28C891A01806D
:104900004188428D891A41807CBD0000D000227010
:10491000700022702DE9FF4F85B000209B46914624
:104920000D4602900390FEF77BFA4FF0000ADDF887
:1049300014800646544625B12868009068680190A6
:1049400002E06846FEF750FA19F00C0F02D05D46FF
:10495000002713E0BDF902402DE029467F1C059891
:1049600000F01EFB01466D1A0598FFF7B3FC059990
:104970000844059005A800F04FFB08B9002DECD1C4
:1049800009F00C00042804D0082802D00C2812D109
:1049900005E0BDF9060007FB1604641C0BE0BDF939
:1049A0000600BDF90210401A07FB1600401C00EB80
:1049B000D07001EB60045D46DFF838B14E4FCDF8A2
:1049C000148079E02946059800F0EAFA2D1A01468C
:1049D0000490059800F0B6FA19F003010ED00129F1
:1049E00065D002290DD1BDF90420BDF90010521A7D
:1049F000121A02EBD27201EB620101E0BDF9001064
:104A00008A463A68401E5044A2F822A09484ADF829
:104A10000C00A019401EADF80E00DDE90410ADF841
:104A200008A0ADF80A4002AAFFF71CFF9BF800009F
:104A300070B3386890F82A00800729D40599414559
:104A40000CD1BDF90A30BDF902108B4206DDBDF96B
:104A50000420BDF900005B1EFDF7B2FCBDF9082083
:104A6000BDF90000824206DDBDF90E30BDF90A1025
:104A7000521EFDF7A5FCBDF90C00BDF904209042C3
:104A800006DABDF90E30BDF90A10401CFDF798FC9E
:104A9000DDE90410FFF71EFC059908440590FEF7B8
:104AA000BFF9044405A800F0B7FA28B106E0BDF943
:104AB0000410091A491CA3E7002D83D19BF80000BC
:104AC000002814D0386890F82A0080070FD4059980
:104AD00041450CD0BDF90E10BDF90630994206DAF9
:104AE000BDF90420BDF90000491CFDF769FC09B0BF
:104AF000BDE8F08FD8002270700022702DE9FF4FC2
:104B00008DB00020DDF86C90164600901D460446DE
:104B10000246C9F8000008AB03A902A800F0C4F9D6
:104B200018B1002011B0BDE8F08F0898854200DD73
:104B30000546604F0B9560493868407C51F820105D
:104B4000049109690691FEF713F905903868407CD5
:104B5000FEF7C2F959498346884201D0012000E09E
:104B600000200A9001CE1A9988478246000E0790CD
:104B700077D0009870BB0D9800EB04084D48006892
:104B8000B0F90800404503DDA0EB0807804600E0CF
:104B900000270299049801EB840101EB8701CDE91C
:104BA00000100B990D98421809920E9B4046194629
:104BB000521EFEF713FE01200090059818280ADA0D
:104BC0000298DDE9052300EB840000EB8700E91B78
:104BD00000F0C8F812E00A9880B1029800EB840057
:104BE00000EB87070998A0EB080859463868884702
:104BF00001C7A8F101005FEA0008F6D1304BD8697F
:104C000080B3DDE9020700EB840007EB8402CDE905
:104C100002022B4C361F2B46E46930460299A0470E
:104C2000FF203168B0EB116F02D10299096804E0EE
:104C3000029A1268B0EB126F01D1039A11600299C7
:104C400006F10406091D02910399091D03916D1EC9
:104C5000E7D10397D9F8000040F00100C9F800003F
:104C600021E022E0FFE70798FF2812D0C0F1FF0201
:104C700002981B6850F824102AF07F409847039947
:104C800041F82400D9F8000040F00101C9F80010F3
:104C900005E00298039950F8240041F82400641CB0
:104CA0006D1E7FF45FAF03983CE7039941F824A0A1
:104CB000E8E7000070002270A8002270555C0270C6
:104CC000E802227010B50846FFF7EEFA04460448E1
:104CD0000068C069016820468847204610BD000072
:104CE000700022700149096849680847580022701D
:104CF0002DE9F04F85B09B46DDE90F8792460C46C3
:104D00000546DDF83890FEF73DF915480068816CDE
:104D10004E190D19C16CABF1010001EB0A04ADF89D
:104D200010502044ADF80C60ADF81200ADF80E4004
:104D300003A804F071FA0BE0CDF80090CDE90187EB
:104D40005B4622462946304606F0FDFB04F018FA81
:104D50000028F1D1FFF7D0FB05B0BDE8F08F0000CF
:104D6000700022702DE9F05F0C1E16DD5E680146B2
:104D700000EB8405082A12DC611E012A26D0022AD3
:104D800047D0042A6AD0082A07D1071917F8010D5D
:104D9000B04745F8040D641EF8D1BDE8F09F102A15
:104DA000FBDC5F693FB12246BC46BDE8F04F022301
:104DB0005DF804EB604701EB440700BF37F8020DD4
:104DC000B04745F8040D641EF8D1E6E700EBE100BA
:104DD00001F0070710F801A98146802020FA07F8A2
:104DE000B5F104050AEA0800C7F10701C840B04759
:104DF00045F804093FB14FEA48604FEA10687F1E4A
:104E0000641EEFD1C9E719F801A907274FF001087F
:104E1000F6E700EBA10001F0030710F801A98146B5
:104E20007900C02020FA01F84FF0060BB5F1040517
:104E30000AEA0800ABEB4701C840B04745F804094F
:104E40003FB14FEA88604FEA10687F1E641EEFD1C1
:104E5000A3E7032719F801A9B846F7E700EB6100BB
:104E6000012710F801A9A7438146B900F02020FAD4
:104E700001F84FF0040B2D1F0AEA0800ABEB870185
:104E8000C840B04745F804093FB14FEA08704FEAFF
:104E900010687F1E641EEFD17FE719F801A9012772
:104EA0004FF00F08F6E700002DE9F047224C0646C8
:104EB0001F46A06990468946002540B90120A0619F
:104EC00004F128011D480860084600F0DBF960691C
:104ED00030B91B480068606110B900F04FFE606196
:104EE00007B138604EB1A06830B960698000FDF745
:104EF00009F9A06000B901253060B9F1000F0AD0AE
:104F0000E06830B960698000FDF7FCF8E06000B946
:104F10000125C9F80000B8F1000F0AD0206930B9A6
:104F200060698000FDF7EEF8206100B90125C8F83E
:104F300000002846BDE8F087E802227005C802702C
:104F4000C400227073B5144B002201A91B6800989D
:104F5000984700240090E0B1104900250968C9690C
:104F60004A6922B1126812B1019990477CBD486824
:104F700038B90EE06846FFF797F90546FDF70EFFD2
:104F800004440198401E0190F4D5284600F038F8FA
:104F9000044420467CBD000044032270700022704F
:104FA00073B50D460098002490B10A490968C96993
:104FB000496959B14A684AB1294690477CBD68465B
:104FC000FFF772F920B10A2802D0641CAC42F6DB6C
:104FD00020467CBD700022700148006800680047D0
:104FE00058002270044AB2F9002002600348B0F968
:104FF0000000086070470000D4002270D6002270C4
:1050000038B5002469460094FDF7DAFE0099814224
:1050100000DD0C1A204638BD38B504460068009003
:105020006846FFF741F910B10A2802D003E00120D9
:1050300038BD00982060002038BDB0F90030B1F9CB
:105040000020934200DA0280B0F90230B1F9022068
:10505000934200DA4280B0F90430B1F9042093425F
:1050600000DD8280B0F90620B1F906108A4200DD29
:10507000C180704770B5B1F90040B2F900309C4270
:1050800000DD23460380B1F90250B2F90240A54287
:1050900000DD2C464480B1F90460B2F90450AE4200
:1050A00000DA35468580B1F90610B2F90620914242
:1050B00000DB1146C1809D4201DBA14201DA0020E4
:1050C00070BD012070BD0000014602480068407CB0
:1050D00000F002B8700022702DE9F84301268946DD
:1050E000044602285DDA304F7A6802B190472E4DAF
:1050F0005FEA090005F1100532D0012803D0B9F1AB
:10510000020F4ED118E055F8240088B92046FDF76B
:1051100093FA009018B3C0680D21426A6846904720
:1051200002003ED049460098904755F824000026DA
:10513000401C45F8240034E02046FDF77DFA00903D
:1051400068B1C0680D21426A68469047040028D0C3
:10515000386800B1804749460098A047002620E003
:1051600055F82400A846012812D12046FDF764FA1C
:10517000009068B1C0680D21426A684690470500FA
:1051800006D0386800B1804749460098A8470026F5
:1051900058F8241009B1012200E00022891A48F8C9
:1051A00024103046BDE8F8831803227030B581F032
:1051B0007F43FF2480F07F4094EA116101D120F009
:1051C0007F43010E11FB02F1B1FBF4F100F0FF157A
:1051D000C1F1FF0203F0FF14544301FB05444FF0FB
:1051E000FF15240A05EA1323C0F30720534340F0B8
:1051F000807001FB003104F0FF1001F0FF21084333
:1052000080F07F4030BD00002DE9F05F0646DDF8FC
:10521000389015460C4600200D99804688421ED2D3
:10522000DFF840B00C9F4FF0FF0A02CE08CCAAEB8B
:10523000116202FB09F2B2FBFAF0C2B221F07F4028
:105240001946DBF80030984720F07F4001C57F1EEB
:10525000EBD10A9804EB800408F10100DCE7BDE81B
:10526000F09F0000E802227070470B88134403800F
:105270008B889B1A83804B8813444380C988891A82
:10528000C180704702490A6B4260086370470000A2
:105290005C0022702DE9F843064600688946002527
:1052A000804600F073F848B3484600F07FF8441C8D
:1052B0004046FCF79FFF134F84420CD1F4B14046A7
:1052C000FCF7AEFF00903B68224649469847684687
:1052D000FCF7E8FF11E02046FCF7AEFE04000DD01D
:1052E000FCF79EFF0090FA68494690476846FCF735
:1052F000D9FF3046FCF7F8FE346001252846BDE8AA
:10530000F88300003403227030B50346CCB202E0CB
:1053100003F8014B521E0AB19907F9D1910818D030
:1053200004EB044502F0030205EB052506E020C36B
:10533000091F20C343F8085B43F8045C0429F6DA2C
:1053400001E020C3491E0029FBD102E003F8014B14
:10535000521E002AFAD130BD024600204FF0804193
:105360004318934201D8D21A581840088908F7D137
:105370007047000000B903A001B902A1024A5268B7
:1053800010470000000000003403227038B50D46BD
:10539000012448B1FCF744FF29460090FFF7EAFFDB
:1053A00004466846FCF77EFF204638BD01004FF0FA
:1053B000FF3003D00846024989680847704700005B
:1053C0003403227000F58060AFF3008010B5002335
:1053D000C0F30B00B0F5006F02DD0123A0F5006003
:1053E000B0F5806F01DDC0F5006081110C4C00F05C
:1053F0003F00C0F1400234F811005043402A08D069
:10540000102906DA04EB4101C2F14002498801FB90
:10541000020020308009002B00D0404210BD000067
:1054200094EA0B7000B504200D4908600C4814384C
:10543000006820F00F00C01C0949143908600120E1
:1054400007490860022000F00DF804200449091FF4
:105450000860022000F006F804200149086000BD41
:105460001404024008B50021009104E0BDF80010CA
:10547000491C89B20091BDF800108142F6DB08BDDD
:1054800000B50420094908600120091F08600220B6
:10549000FFF7E8FF04200549091F08600220FFF715
:1054A000E1FF04200149086000BD0000140402402F
:1054B00030B5044600221748006820F00F0040F085
:1054C00008001449086001201249103108600025C5
:1054D00016E004200F49143108600C20FFF7C2FFCA
:1054E00004200C49103108605006020E01F0BCFE89
:1054F00008B1501CC2B20C20FFF7B4FF681CC5B243
:10550000082DE6DB14B9FFF7BBFF01E0FFF78AFFC8
:10551000104630BD0004024008B50246042016497A
:1055200008600020009021E002F0800020B10120FE
:105530001149091F086002E001200F49086002209C
:10554000FFF790FF04200C49091F08600220FFF7B5
:1055500089FF0420084908600220FFF783FF5006F6
:10556000020E9DF80000401CC0B200909DF80000A3
:105570000828D9DB08BD00001404024000B5012052
:1055800009490860042008600A20FFF76BFF01202A
:105590000549091D08600220FFF764FF0420024945
:1055A000091D086000BD00001004024000B50D4850
:1055B000006820F00F00C01C0A490860012009495A
:1055C00014310860042008600220FFF74BFF01201F
:1055D000044910310860042008600220FFF742FFF0
:1055E00000BD00000004024008B5002000901A48E9
:1055F000006820F00F0040F0080017490860012003
:105600001549103108600220FFF72CFF04201249D1
:10561000103108600220FFF725FF0CE0BDF8000004
:10562000401C80B20090BDF80000322803DDFFF777
:10563000BDFF012008BD01F017FE0028EED10420B7
:105640000549143108600448006820F00F00C01CB0
:10565000014908600020EDE70004024070B5FF2317
:10566000104CB3EB116F05D12346050E1B680AD011
:10567000FF2D14D00C4B02EB0212D2B21B689847DC
:105680002168084070BD514201EB01114FF07F428B
:1056900020F07F4002EB01610843184070BD01EA31
:1056A000030070BDB4032270E802227002490A6848
:1056B0000860104670470000B40322700449054A90
:1056C0000968497C52F821100969096808470000F7
:1056D00070002270A80022702DE9F04F05468DB0B1
:1056E0007B48DDF860901A9C00681E4617464FF014
:1056F000000A78B11B9B199ACDF808900593CDE963
:105700000324DDE91623CDE90023046833463A4635
:10571000284680E0DDE9160201EB060805EB070CE0
:105720001043A8F10108ACF1010C012806D0C9F121
:1057300008000590002002910990C6E065480268C3
:10574000B2F90A30581A002806DD361A002E63DD39
:105750001946199B00FB0344B2F90E00A8EB0000A8
:10576000002802DD361A002E56DDB2F90C00ACEB33
:105770000000002800DD3F1AB2F908300020AB42DB
:1057800035DD581B3F1A4B46B9F1080F26D006DC11
:10579000012B0BD0022B11D0042B28D116E0102B9B
:1057A0001ED0182B1FD0202B21D11CE020F0070386
:1057B00004EBE0041D4400F0070018E020F00303B0
:1057C00004EBA0041D4400F0030010E020F00103EE
:1057D00004EB60041D4400F0010008E0044404E010
:1057E00004EB400401E004EB800405440020002F9A
:1057F00012DD1B9BDDF864C0CDE90403CDE900692F
:10580000CDE902C4527C34483B4650F82200C268BD
:1058100054680A462946A0470DB0BDE8F08F179995
:10582000029808440C902B49401E00900A68B2F977
:105830000A30834241DCB2F90E10029881423CDB0F
:105840004FF0000BD84603950A9434E0BBF1000FEB
:1058500005D10A984FF0080B10F801AB0A90059992
:10586000ABEB090B3AFA01F00AFA09F101F0FF0A71
:1058700004D118490968097C890716D415490968B3
:10588000C96B0A680B921B9A0AB152F82000086093
:1058900016990398009B4218521E029900F0A8F82E
:1058A0000C490B980968C96B08600399169808F1B0
:1058B000010808440390B845C8DB0998401C0990CA
:1058C0000C980290199804440998B042A7DBA3E70A
:1058D000D000227070002270A8002270F0B40C4634
:1058E00012490968B1F90A30A3421CDCB1F90E3043
:1058F000A34218DBB1F90830834200DD1846B1F944
:105900000C30934200DA1A4682420CDB4B7C084989
:1059100051F8235013462246E9688E68014628460E
:10592000B446F0BC6047F0BC7047000070002270C5
:10593000A80022700A46174930B40968B1F90A3044
:10594000934225DCB1F90E30934221DBB1F90830E6
:1059500083421DDCB1F90C30834219DB0B7C0E4C09
:10596000DB0709D0497C54F82130D968CC6901465D
:10597000A44630BC18466047CB6B497C1B6854F882
:105980002140E1688D6901462046AC4630BC604745
:1059900030BC704770002270A8002270124B30B4E7
:1059A0001B68B3F9084084421CDCB3F90C40844204
:1059B00018DBB3F90A408C4200DD2146B3F90E40F2
:1059C000944200DA22468A420CDB5C7C074B53F897
:1059D0002440E368DD6813460A4601462046AC468B
:1059E00030BC604730BC704770002270A800227045
:1059F00038B5134C2468B4F90850854200DD2846B8
:105A0000B4F90C50954200DA2A46824217DBB4F909
:105A10000A508D4200DD2946B4F90E509D4200DA4D
:105A20002B468B420BDB0093647C064B53F82440DF
:105A3000E3681D6913460A4601462046A84738BD5B
:105A400070002270A80022702DE9F04704460D4630
:105A5000089E4FF0000CC4EB04184FEA48170020D2
:105A60001BE0002113E0E0460CF1010C56F8288001
:105A700007EB00094FF4F07A0AFB0199A944DFF81B
:105A800024A04AF8298001F101081FFA88F1914207
:105A9000E9DB00F101081FFA88F09842E1DBBDE87C
:105AA000F087000000152270082106F0B5BA00004A
:105AB00002480068806B0068704700007000227028
:105AC00002480068C06B00687047000070002270D8
:105AD0000C2106F0A1BA0D2106F09EBA0248092158
