:02000004700288
:10000000D0577B7095020270A3020270A5020270A5
:10001000A7020270A9020270AB0202700000000089
:10002000000000000000000000000000AD020270AF
:10003000AF02027000000000B1020270B302027051
:10004000B502027000000000B5020270B502027035
:1000500000000000B5020270B5020270B502027025
:10006000B5020270B5020270B5020270B5020270EC
:10007000B5020270B5020270B5020270B5020270DC
:10008000B5020270B5020270B5020270B5020270CC
:10009000000000000000000000000000B502027037
:1000A000B5020270B5020270B5020270B5020270AC
:1000B000196F0270B5020270B5020270B5020270CB
:1000C000B5020270B5020270B5020270B50202708C
:1000D000B50202708D700270B5020270B502027036
:1000E000B5020270B5020270B5020270B50202706C
:1000F000B5020270B5020270B5020270B50202705C
:1001000019700270B5020270B5020270B502027079
:10011000B5020270B502027000000000416F02706B
:10012000B5020270B5020270B5020270B50202702B
:10013000B5020270B5020270A56E0270B5020270BF
:10014000000000000000000000000000B502027086
:10015000B5020270B5020270B50202700000000024
:10016000B5020270B502027000000000000000003D
:10017000000000000000000000000000000000007F
:1001800000000000B5020270000000000000000046
:10019000B502027000000000B5020270B5020270E4
:1001A0005155027000000000B502027000F002F824
:1001B00000F061F80AA090E8000C82448344AAF1A0
:1001C0000107DA4501D100F056F8AFF2090EBAE89E
:1001D0000F0013F0010F18BFFB1A43F0010318477B
:1001E000E8FD090008FE09000A444FF0000C10F871
:1001F000013B13F0070408BF10F8014B1D1108BFA5
:1002000010F8015B641E05D010F8016B641E01F844
:10021000016BF9D113F0080F1EBF10F8014BAD1C94
:100220000C1B09D16D1E58BF01F801CBFAD505E0B2
:1002300014F8016B01F8016B6D1EF9D59142D6D30C
:10024000704700000023002400250026103A28BF34
:1002500078C1FBD8520728BF30C148BF0B60704738
:10026000642900F04780002070471FB50DF053FF50
:100270001FBD10B510BD00F0ABFB1146FFF7F5FF39
:100280000DF044FC00F0C9FB03B4FFF7F2FF03BC20
:100290000CF053F80B48016841F4700101600A4802
:1002A0000047FEE7FEE7FEE7FEE7FEE7FEE7FEE7C4
:1002B000FEE7FEE7FEE7000004480549034A054B58
:1002C0007047000088ED00E0AD010270D0377B7010
:1002D000D0577B70D0377B70704700000FB4044953
:1002E00010B503AA029800F0E1FA10BC5DF814FB07
:1002F000180022702DE9F041064600241068752987
:10030000314616A510D0AFF30080002802DA404233
:1003100013A507E031688A0701D512A502E0490755
:1003200004D511A5012401E0AFF3008000210A22C9
:1003300006F1240709E0B0FBF2FCB0FBF2F302FB8C
:100340001C00303078541846491C0028F3D123464D
:100350002A463046BDE8F04100F04EBA00000000E9
:100360002D0000002B000000200000002DE9F05FB0
:10037000894604464FF0000ADFF824B1FB44C0F878
:1003800020A02046E168884700287DD0252806D097
:10039000D4E901219047206A401C2062F1E7002542
:1003A0005F462046E16888472028064607DB312E55
:1003B00005D2B81910F8200C08B10543F1E7A807D9
:1003C00001D525F00405C4F81CA00027C4F818A026
:1003D0002A2E09D030460BF0A9FF38B304EB87086A
:1003E000303EC8F8186019E059F8041B204604EBA9
:1003F00087029161E1688847012F064618D1E069BC
:10040000002820DA25F020051DE0D8F8180000EBC0
:10041000800006EB40003038C8F818002046E1683C
:10042000884706460BF082FF0028EED1012F0AD044
:100430002E2E08D12046E16888477F1C0646022FF1
:1004400045F02005C4DBA069002803DA404245F0EE
:100450000105A061E80701D025F01005A6B1A6F1BD
:100460004100192802D8203645F400654A46314635
:10047000204625604D46FFF7F3FE60B1012807D006
:10048000ED1D25F0070000E007E000F1080978E71E
:1004900005F1040975E730467AE7206ABDE8F09F68
:1004A00034FC090040EA010310B59B070FD1042A70
:1004B0000DD310C808C9121F9C42F8D020BA19BA2F
:1004C000884201D9012010BD4FF0FF3010BD1AB194
:1004D000D30703D0521C07E0002010BD10F8013BE9
:1004E00011F8014B1B1B07D110F8013B11F8014B10
:1004F0001B1B01D1921EF1D1184610BD40EA010329
:10050000024630B59B0710D14FF0013400E008C21D
:1005100008C91D1B9D4315EAC41FF8D013F0FF0145
:1005200002F8011B0DD01B0AF8E711F8013B002B64
:1005300002F8013B05D011F8013B002B02F8013B0A
:10054000F3D130BD10B5431C02E010F8011B71B1AE
:100550008107FAD14FF0013202C88C1A8C4314EA99
:10056000C211F9D0C01A0A0603D0C01E10BDC01AAD
:1005700010BD0A0401D0801E10BD0902FCD0401E2F
:1005800010BD032A40F2308010F0030C00F01580FB
:1005900011F8013BBCF1020F624498BF11F801CB86
:1005A00000F8013B38BF11F8013BA2F1040298BFEB
:1005B00000F801CB38BF00F8013B11F0030300F055
:1005C0006B80083AC0F0088051F8043B083A51F8B3
:1005D00004CBA0E80810F5E7121D5CBF51F8043BFE
:1005E00040F8043BAFF30080D20724BF11F8013B71
:1005F00011F801CB48BF11F8012B24BF00F8013BD3
:1006000000F801CB48BF00F8012B7047431A28BF00
:100610009A427FF6B6AF032A1044114440F2268076
:1006200010F0030F1EBF11F8013D521E00F8013DEE
:1006300010F0030F7FF4F6AF11F0030300F05B81BD
:10064000083AC0F00B8051F8043D083A51F804CD47
:1006500040F8043D40F804CDFFF7F3BF121D5CBF26
:1006600051F8043D40F8043DAFF30080D20724BFA9
:1006700011F8013D11F801CD48BF11F8012C24BF3C
:1006800000F8013D00F801CD48BF00F8012C70478B
:1006900001B5FFF776FF01BD10B5203AC0F00B8021
:1006A000B1E81850203AA0E81850B1E81850A0E876
:1006B0001850BFF4F5AF5FEA027C24BFB1E81850D0
:1006C000A0E8185044BF18C918C0BDE810405FEA40
:1006D000827C24BF51F8043B40F8043B08BF7047BC
:1006E000D20728BF31F8023B48BF11F8012B28BFC1
:1006F00020F8023B48BF00F8012B704701F0FF03D0
:10070000114601B543EA032242EA024200F01FF912
:1007100001BD02F0FF0343EA032242EA024200F075
:1007200016B94FF0000200B513469446964620399C
:1007300022BFA0E80C50A0E80C50B1F12001BFF49A
:10074000F7AF090728BFA0E80C5048BF0CC05DF800
:1007500004EB890028BF40F8042B08BF704748BF4E
:1007600020F8022B11F0804F18BF00F8012B7047C2
:100770004FF0013C50F8042B51F8043B9A4221D130
:10078000A2EB0C03934313EACC1317D150F8042BBC
:1007900051F8043B9A4215D1A2EB0C03934313EAA0
:1007A000CC130BD150F8042B51F8043B9A4209D1D9
:1007B000A2EB0C03934313EACC13DBD04FF0000001
:1007C000704700BFD01A01BAB1FA81F101F01801E7
:1007D00022FA01F0CB40C1F12001DBB2C0B2C01A55
:1007E0002CFA01F3D11A914311EAC311E6D17047F3
:1007F00070477047704770472DE9F0470D4699469E
:100800009246044600F124080168880604D5E06990
:1008100021F01001216000E00120A84201DD471B0A
:1008200000E00027A1697A1902EB0900081AA0610B
:100830002078C00602D42046AFF30080002608E0EE
:10084000D4E901211AF806009047206A401C761C62
:1008500020624E45F4DB2078C0060AD52046AFF36F
:10086000008006E0D4E9012130209047206A401C36
:100870002062381EA7F10107F4DC07E0D4E901216A
:1008800018F805009047206A401C2062281EA5F138
:100890000105F3DC2046AFF300802078000602D586
:1008A0000220BDE8F0870120FBE70000074B70B590
:1008B0000D467B4400F071F80446284600F080F8AD
:1008C00010B14FF0FF3070BD204670BDBBCE0000B0
:1008D000431A28BF9A427FF6DFAE104410F0030F90
:1008E00011441EBF11F8013D521E00F8013D10F0E9
:1008F000030F7FF4F6AF103AC0F00A8010B531E96B
:100900001850103A20E91850BFF4F9AFBDE8104074
:10091000530724BF31E9081020E9081044BF51F8FB
:10092000043D40F8043D12F0030F08BF7047D207A2
:1009300028BF31F8023D48BF11F8012C28BF20F82C
:10094000023D48BF00F8012C70474FF00002042917
:10095000C0F0128010F0030C3FF4E5AECCF1040CB3
:10096000BCF1020F18BF00F8012BA8BF20F8022B22
:10097000A1EB0C01FFF7D7BE5FEAC17C24BF00F8F2
:10098000012B00F8012B48BF00F8012B7047000035
:1009900001694A1C02610878704700B58FB0CDE943
:1009A00001310021059105497944CDE90310114633
:1009B0006846FFF7DBFC0FB000BD0000E5FFFFFF5E
:1009C000007B00F080007047004870476C377B70F8
:1009D0007546FFF7F9FFAE4605006946534620F01D
:1009E0000700854618B020B5FFF766FCBDE820403B
:1009F0004FF000064FF000074FF000084FF0000BDB
:100A000021F00701AC46ACE8C009ACE8C009ACE88D
:100A1000C009ACE8C0098D46704710B50446AFF375
:100A200000802046BDE81040FFF72EBC00224FF4A6
:100A3000803105E009484068C0F3810000B903E057
:100A4000081EA1F10101F5D100BF09B903207047CB
:100A5000FF20024B98621046F9E700000030014089
:100A600010B5024605E01B48816A01F0C10000B1E3
:100A700000E0F8E700BF01F0400020B14020154C35
:100A8000A062032010BD01F0800020B18020114C35
:100A9000A0620120F6E7FF200E4CA0622046006D08
:100AA00000F03F00904201D01020EBE70948C06CF5
:100AB00004060848806C44EA00440648406C44EA56
:100AC0000020044C246C40EA040308201840C0B203
:100AD000D8E700000030014010B500204FF480320C
:100AE00005E0104B996A01F0C10303B103E0131E46
:100AF000A2F10102F5D100BF12B101F0400323B110
:100B000003204023074CA36210BD01F080031BB1FA
:100B100001208023034CA362FF23024CA36200BF89
:100B2000F2E700000030014005E00A48816A01F068
:100B3000C10000B100E0F8E700BF01F0400020B1C3
:100B40004020044A906203207047FF20014A9062CF
:100B50000020F9E70030014070B503460C4600253F
:100B600005E02548826A02F0C10000B100E0F8E724
:100B700000BF02F0400020B140201F4EB0620320B1
:100B800070BD02F0800020B180201B4EB0620120B9
:100B9000F6E71948006D00F03F00984201D01020A0
:100BA000EEE7FF20144EB0623046C06C06061248D5
:100BB000806C46EA00461048406C46EA00200E4E23
:100BC000366C40EA060101F4604018B9080C208038
:100BD0002846D5E701F4005008B11320D0E701F40E
:100BE000804008B11020CBE701F4004008B10F208D
:100BF000C6E72846C4E700000030014010B50020D9
:100C00004FF4803205E00E4B996A01F0C10303B145
:100C100003E0131EA2F10102F5D100BF12B101F0F1
:100C2000400323B103204023054CA36210BD01F013
:100C300001031BB100200123014CA36200BFF5E7B3
:100C40000030014070B505460E46002403F0AEF9B1
:100C5000702003F079F903F0DFF9002003F074F954
:100C600003F0DAF903F0BAF903F0A0F9712003F008
:100C70006BF903F0D1F900BF0DE0701EA04204D162
:100C8000002003F02DF9285503E0012003F028F996
:100C90002855601C44B2B442EFD303F09FF9002002
:100CA00070BD00000E4810B5006801F027FD0D482A
:100CB000006801F02EFD012001F090FD002001F000
:100CC0009BFD002001F0A8FD002001F02DFD06484D
:100CD000006801F035FDBDE81040002001F050BD76
:100CE00084002270800022707C0022702DE9F04187
:100CF000034600250026002000220024002791F84A
:100D000005C00CF00F0591F805C00CF0100CBCF1FB
:100D1000000F03D091F804C04CEA050591F800C01B
:100D2000BCF1000F31D01C6800202BE04FF0010C0B
:100D30000CFA00F2D1F800C00CEA0206964220D16B
:100D400082004FF00F0C0CFA02F7BC4305FA02FCCC
:100D50004CEA040491F805C0BCF1280F06D14FF00D
:100D6000010C0CFA00FCC3F814C00AE091F805C0AD
:100D7000BCF1480F05D14FF0010C0CFA00FCC3F890
:100D800010C0401C0828D1D31C60D1F800C0BCF1B1
:100D9000FF0F34D95C6800202EE000F1080C4FF002
:100DA000010808FA0CF2D1F800C00CEA02069642DB
:100DB00021D182004FF00F0C0CFA02F7BC4305FA68
:100DC00002FC4CEA040491F805C0BCF1280F05D1DF
:100DD00000F1080C08FA0CF8C3F8148091F805C06B
:100DE000BCF1480F07D100F1080C4FF0010808FAD8
:100DF0000CF8C3F81080401C0828CED35C60D1F8F2
:100E000000C04FEA1C4CBCF1000F3DD0D1F800C02F
:100E10004FEA1C4CC1F800C0DFF870C0DCF8284075
:100E200000202BE04FF0010C0CFA00F2D1F800C0CA
:100E30000CEA0206964220D182004FF00F0C0CFA09
:100E400002F7BC4305FA02FC4CEA040491F805C021
:100E5000BCF1280F06D14FF0010C0CFA00FCC3F8CE
:100E600014C00AE091F805C0BCF1480F05D14FF05D
:100E7000010C0CFA00FCC3F810C0401C0828D1D3A8
:100E8000DFF808C0CCF82840BDE8F081001002402F
:100E9000F0B503460C46250CD5B1210C002015E019
:100EA00001F001057DB1244D2D6B87000F26BE405A
:100EB000B543214E356335462D6B860002FA06F6A2
:100EC00035431D4E35634908451CE8B20828E7DB69
:100ED00004F47F45B5B1210A002011E001F00105BD
:100EE0005DB15D6A87000F26BE40B5435D625D6AF5
:100EF000860002FA06F635435D624908451CE8B2F1
:100F00000828EBDBE5B2ADB1002011E001F00105EE
:100F10005DB11D6A87000F26BE40B5431D621D6A84
:100F2000860002FA06F635431D624908451CE8B200
:100F30000828EBDBF0BD0000001002401CB50121C9
:100F40001A2004F005FCF020009002208DF8040027
:100F500018208DF8050069462148FFF7C7FE4FF4B9
:100F60002060009002208DF8040010208DF805000C
:100F700069461B48FFF7BAFE0120009002208DF859
:100F8000040010208DF8050069461648FFF7AEFEF4
:100F90004FF4A070009002208DF8040010208DF80E
:100FA000050069461048FFF7A1FE0E22F0210C480B
:100FB000FFF76EFF03F0EAFF6FF07F400090032021
:100FC0008DF8040018208DF8050069460548FFF7E4
:100FD0008DFE0E226FF07F410248FFF759FF1CBDC6
:100FE0000004024000100240000C02402DE9F04FC6
:100FF000DFF828B191B04FF0FF35DBF80030B3F9DE
:1010000022100691DE69B3F92490F469A189814226
:1010100006D8E289824203D3471AD4F8008012E04E
:10102000D4E9018100296FD00A8882426CD84D88AA
:10103000854269D3801A82B2486800EB8200B0F919
:101040000070B0F90250781C5ED0307EA17C10FB9D
:1010500001FA217CCDE90701B3F92A60304603F09B
:1010600061FDC0B20E90DBF8000007FB0A81A37C93
:10107000826B0127CDE90412CDE90273C069089A99
:10108000C17E807ECDE90001DDE90603494603F01B
:101090009DF8681C18D046F0020003F043FDDBF811
:1010A0000000A37C05FB0A81826BCDE90273CDE9C8
:1010B0000412C069089AC17E807ECDE90001DDE995
:1010C0000603494603F082F8DBF800005D46C0697C
:1010D000417E007E814214D9022E12D086F0040097
:1010E00003F020FD2868C069027EC37E12FB0391D5
:1010F000437E857E089A06984B4412FB050203F056
:10110000F1F90E9803F00EFDDBF80000627C418CD3
:101110001144418411B0BDE8F08F000088002270B6
:1011200004480068C069C06909B1027C0A60407C5B
:101130007047000088002270022008807047C06954
:1011400082898A4202D8C2898A4210D2806880B1DC
:1011500002888A420DD843888B420AD3406800EB4C
:101160008100A0EB8200B0F90000002801DB012023
:1011700070470020704700002DE9F043334C0346D0
:1011800087B020681946B0F92A60C069C06900F0CC
:1011900090F8002853D041680088181A01EBC00568
:1011A0003046AF7803F0BEFC814620686A680123B0
:1011B000816BCDE90237CDE90421C169CB7E8A7EFE
:1011C000CDE900230B7EB0F924102A78B0F9220073
:1011D00002F0FCFF2068C069417E027E91421FD967
:1011E000C07E11FB00F812FB00F7022E18D000F0B1
:1011F000FFFC064600F0CAFC01F08BFA21682A7851
:10120000CB69B1F92200DB7E12FB0302B1F9241095
:1012100001EB0803394403F065F9304601F079FA2F
:10122000484603F07FFC20686A78C369B0F9221051
:101230009B7E12FB0311418407B0BDE8F08307B029
:101240003046BDE8F04302F051BB00008800227038
:1012500070B5114C05460B4620682946C069C06927
:1012600000F027F898B14168008824682A1A012004
:10127000E46900EBC200085CA47E10FB04F0002BC4
:1012800004D011F8321011FB04F1196070BDBDE8F3
:10129000704002F06BBC00008800227001200880C2
:1012A000704700B5C06900F004F8002800D00120A4
:1012B00000BD06E002888A4202D842888A4202D2F1
:1012C00080680028F6D170472DE9F0410025144EC2
:1012D000144C17E02069C5EB051700EBC70070221E
:1012E000001D3168FFF7D8F92069002140F8371058
:1012F00000EBC70000F10C018161011DC163091DF4
:101300006D1C0164A0688542E4DB09F017FA2169CD
:10131000C0EB001001EBC000001D3060BDE8F081A3
:10132000880022704002227070B510490E48086093
:10133000084602F05FFD0D4C143CA068C0EB0010A5
:10134000C500284600F06EF8094B20612A461B684C
:10135000002198474FF0FF30206001F0F2FFBDE818
:10136000704009F0EBB9000039AC027054022270F1
:101370002002227010B5040009D000F0FBFC2046CA
:1013800007F026FB044601F0AFFF204610BD002009
:1013900010BD000038B5054600F0ECFC2846FFF70C
:1013A000E9FF04000AD000F0BDF8064B00902A4681
:1013B0001B6800219847684600F0F6F801F094FF9A
:1013C000204638BD20022270024A106021F003003E
:1013D0005060704768357B7010B5040011D000F084
:1013E000C9FC0848042101EBC401406B415848681E
:1013F00007F0A6FA204609F0FBFCBDE8104001F01A
:1014000073BF10BDA8347B70002808D00449CA6B94
:10141000026000224260026802B15060C8637047F7
:10142000A8347B702DE9F041044609F043FA2848BE
:10143000E41C24F00305016C2D1DA94200D90D46C2
:10144000C46B13E054F8042CAA420ED184B1216875
:1014500009B162684A60616809B122680A60C26BBA
:10146000A24231D12168C1632EE02468002CE9D169
:101470008046816BC0680F1857F8040C3E1A30681C
:1014800038B1002009F01EFD57F8040C3E1A3068F0
:10149000D0B97068A84217DB3044441B3046241D85
:1014A00009F0C8FCD8F80C10491BC8F80C10D8F883
:1014B00014102944C8F814107068401B02D031463B
:1014C00007F03EFA44F8045C2046BDE8F0810000D5
:1014D000A8347B7010B5002409F0ECF90C490F20FA
:1014E00001EBC002526C1AB101EBC000406C08E085
:1014F000401EF5D508E04168A14200D90C4680683D
:1015000010B180680028F6D1A4F10C0010BD0000D5
:10151000A8347B7002488169491C816170470000D2
:10152000A8347B700549CA69521CCA61496B01EB3A
:10153000C0010A78521C0A7000F04EB8A8347B70C3
:1015400010B500F017FCFFF7C5FF64220849B0F59D
:10155000800F04D990FBF2F4086A444303E0096A5F
:101560004143B1FBF2F401F0BFFE204610BD000084
:10157000A8347B7006490A680649904205D94A6832
:10158000B0EB520F02D3500800E01046886070475D
:101590006C00227068357B7002488169491E816148
:1015A00070470000A8347B700A4902684B6B52F800
:1015B000082C03EBC2021378022B03D3CB690BB1C7
:1015C0005B1ECB611178491E117000210160084635
:1015D00070470000A8347B700349042202EBC0006E
:1015E000496B085808307047A8347B70524202F0AB
:1015F000F4BB000070B514460D46064600F0BAFB79
:10160000204600F001FB0300174804EB840109D0D9
:1016100050F8210041688068711A2A1A184601F0B2
:101620009FF81CE000EB8104A268B24201D00122C5
:1016300000E00022E368AB4201D0012300E0002378
:101640001A430CD0236943B150F8210081684068E7
:101650006A1A311A184601F00DF8C4E90265BDE8AE
:10166000704001F041BE0000E4357B7010B5C2B29D
:10167000CBB2D21A00D5524293B25B43C0F30722D9
:10168000C1F30724121B00D55242000C92B2A0EB0A
:10169000114002FB023200B2002801DA404200B2DF
:1016A00080B200FB002010BD10B50021084600F0FC
:1016B00013FB43F6FF725042BDE81040134601464B
:1016C000AFF300802DE9FC411C4615460E46074647
:1016D00000F050FB042003F025FA804612484069D0
:1016E000816CC06C0F4406440D440444ADF8007096
:1016F000ADF80450ADF80260ADF80640684606F05B
:10170000DDFC07E023462A463146384602F0EAFE71
:1017100006F096FC0028F5D1404603F003FA01F0EC
:10172000E3FDBDE8FC810000740022702DE9F0416A
:101730001C4616460D460746022B02DB0020BDE87C
:10174000F0811C20FFF76EFE0028F8D00DB1056176
:101750000AE0094A52F8241009B905E011460A685E
:10176000002AFBD109690161846186820021016040
:101770004160C0E90217E2E7C000227070B51D4663
:10178000FFF7D4FF040009D000F00EF8E06800680D
:1017900020B90348006800EB85004465204670BD11
:1017A00088002270FFF730BE70B5C0B38269022A8C
:1017B00036DA2149531C0C789C4200DA0B701F4C1E
:1017C00054F8221019B944F8220032E019464B6847
:1017D000002BFBD106E0CB68C5681B682D68AB42C7
:1017E00003DD09680029F6D11AE0C1B1CB68C668EB
:1017F0001B683668B3420CD1838A012B05D008E000
:101800001946DB681B68AB4203DB0B68002BF7D182
:1018100029B14B6833B118604A68426004E0FFE7C1
:10182000012070BD44F822004860884200D10021A8
:101830000160002070BD0000E6002270C000227030
:1018400010B503E00468FFF7AFFF20460028F9D188
:1018500010BD000010B50C4B8269002153F82240E6
:10186000844205D1046843F82240026802B1516005
:1018700042680AB10368136002680AB143685360A2
:101880000160416010BD0000C00022700020704760
:10189000022801DB00207047054951F8200004E0D0
:1018A000C16809680029F6D000680028F8D170479F
:1018B000C00022702DE9F041044601F03BFD0619FD
:1018C000164F1FE000F0E0F83868844200DD04465F
:1018D000A04600F04FFA12480568FFF71BFE2C00E7
:1018E00017D000BF01F000FD641EFBD1404601F09F
:1018F00011FD1DB100F03EFA6D1EFBD1FFF74CFE4D
:1019000001F0F2FC01F016FD341A002CDADCBDE81F
:10191000F081404601F0FEFCF0E70000200122705B
:101920004C0222702DE9FC4706005FD000F022FA3D
:1019300000F074F93C4C81462068B0F9228000F038
:101940009DF9216807468A8CD01B888441E000BF3E
:1019500047F6FF71304602F0EDF882460146304608
:1019600002F0BAF82168054691F82C0000F0030057
:10197000012841D002283BD000204A8C101A48840C
:10198000ADF800006A1E1044ADF80400888CADF874
:101990000200A9F101010844ADF806006A4651466B
:1019A000304601F057FE2168BDF802008884514698
:1019B000304601F087FB064430780A281ED00D28F7
:1019C0001CD0BDF80000216828444884307818B144
:1019D000761C30780028BBD12068818C3944818402
:1019E000818D21F00301818501F07EFCBDE8FC873B
:1019F00005EBD5704010C0E72846BEE7206890F898
:101A00002C1001F0030101290BD0022909D0018C0F
:101A1000418431780A29D9D1828C02EB0901818471
:101A2000D4E7A0F82280F4E78800227070B514464D
:101A30000D46064600F09EF90548006845848484FA
:101A40003046FFF76FFFBDE8704001F04DBC00006D
:101A5000880022702DE9F04107460A4815460E46D7
:101A60000068B0F92C0040F0020000F0C5FE04460A
:101A70002A4631463846FFF7D9FF2046BDE8F041F7
:101A800000F0BABE8800227010B5002400E00124E6
:101A900000F004F80028FAD1204610BD0B4810B51C
:101AA0000068002410B1804700B1012405F094FDC6
:101AB00000B101240648006810B1804700B101243C
:101AC0000448006800B18047204610BD9400227091
:101AD000CC0022708C00227008B50B46002805D07F
:101AE000009281888268C08800F001F808BD10B5B6
:101AF0000828029C30D008DC04FB01F401280AD03D
:101B0000022813D0042804D11CE0102828D0202853
:101B10002CD0002010BD04EBD30003F00701105CB3
:101B2000C1F10701C84000F0010010BD04EB9300B3
:101B30000621105C01EA4301C1F10601C84000F032
:101B4000030010BD04EB5300D907105C02D000F075
:101B50000F0010BD000910BD04FB0130105C10BD6A
:101B6000481004FB003032F8100010BD881004FB50
:101B7000003052F8200010BD034951F82000C16820
:101B80008A6A082110470000C000227010B500F0DA
:101B9000F1F802F007FD02F0C9FD044601F0A4FBD4
:101BA000204610BD10B5044600F0E4F805480021B9
:101BB0000068C069426820469047044601F094FBE3
:101BC000204610BD8800227070B50C46054600F016
:101BD000D1F8064821460068C06942682846904707
:101BE000044601F081FB204670BD00008800227091
:101BF00010B500F0BFF802F0DDFC02F097FD0446DE
:101C000001F072FB204610BD0021022802D20249D9
:101C100051F82010084670473802227010B500F0C5
:101C2000A9F804480068C069447E01F05DFB2046C5
:101C300010BD00008800227070B515460E4604469F
:101C400000F098F82A463146204602F0EDFC0400E8
:101C500002D000203060286001F046FB204670BDB5
:101C600070B50C46054600F085F82146284601F07F
:101C700083FFBDE8704001F037BB000010B50024C1
:101C800000F078F80B48006890F82C1001F00C0177
:101C9000042904D0082906D00C2907D103E0C06923
:101CA000047E641E02E0C069007E440801F01CFB53
:101CB000204610BD88002270024951F820000069BA
:101CC00000687047C0002270024951F82000006986
:101CD00040687047C000227070B50C46054600F0A1
:101CE00049F8044800684584848401F0FDFA002026
:101CF00070BD00008800227070B501F0DBFB1B4C4A
:101D00002E20207001F01CFB194808F08FFD02F016
:101D100027FD054602F0BAFCC0B1002602F0CAFC5D
:101D2000B0B10020064307D002F0CDFC064602F019
:101D3000B6FC314602F0F0FE0021084600F02EFD10
:101D400005F08EFEFFF7C0FA606B09E00126E5E7BB
:101D50000120E7E7006800B18047606B406860637E
:101D60000028F7D10120A070284670BD74002270B1
:101D700074357B7070B5184CE06820B101F0D7FA6B
:101D80006168884204D001F0DDFA01F0D0FA6060A9
:101D9000E068401CE06001281CD108F0CFFC05463B
:101DA0002068854216D0002813DBFFF76FFD01463F
:101DB0002068C0EB0012206900EBC2025167C5EB3E
:101DC0000511064A00EBC100011D1160406FFFF7CD
:101DD00037FD256070BD000040022270880022702F
:101DE0001CB5040004D10E480068C46D002C16D048
:101DF000FFF7C0FF2046FFF795FB00904469684657
:101E0000FFF7D2FB4CB12046FFF78CFB01908168B5
:101E10008968884701A8FFF7C7FB01F065FA1CBD78
:101E20008800227001490A4600F002B801F0FFFF65
:101E30002DE9F04387B015460C465FEA000846D00E
:101E4000FFF798FF002000F06FFC814621480068F2
:101E5000C66D4046FFF766FB00900068806900F0A1
:101E600031FC074640F6FF70C44204D10098B0F937
:101E70000440B0F906500098611E0289ADF8044094
:101E80001144ADF808104189681E0844ADF80650A9
:101E9000ADF80A0005F0EAF96846FFF785FB01A8EE
:101EA00006F00CF906E02A462146404600F0D0FA3A
:101EB00006F0C6F80028F6D1384600F003FC30469C
:101EC00000F090F9484600F02FFC01F00DFA07B041
:101ED000BDE8F083880022702DE9FE4F98469146B8
:101EE0008A46834600270C9EFFF744FF184819498D
:101EF0000068407C51F82040E1680968042903D05B
:101F00002468002CF8D100E01CB9FFF7C1FC041EC6
:101F10001BD0E0680121C26A20469047050011D01D
:101F20002469A0688047401C02D10B4C46F0010692
:101F30000096CDE9015443464A465146584600F0C2
:101F4000E5F9074601F0D0F93846BDE8FE8F0000FC
:101F500088002270C000227058FE0B7038B5040053
:101F60001CD0FFF707FF0E480068C06DA04201D1EA
:101F700000F09AFB2046FFF7D5FA0090406908B1BF
:101F800001F09BF900980068FFF70CFC6846FFF72A
:101F90000BFB2046FFF720FA01F0A6F938BD000040
:101FA000880022702DE9FF4F83B09A468B46074682
:101FB000FFF7E0FEDFF83891D9F80000447C4D4887
:101FC00000570128204606DD02F066FB0546204644
:101FD00002F076FB05E002F048FB0546204602F0E1
:101FE0004AFB04461FB302A901A8FFF739FEB7F95F
:101FF0000000002800DA0020B7F902608046002EB9
:1020000000DA002601984119B7F90400491E08F0CA
:102010004DFD054602980119B7F90600491E08F062
:1020200045FDA5EB0802841B521C641C03E04FF025
:10203000000846462A46BAF1000F01D1C4F1000A51
:10204000002A51DD002C4FDD109800905346314698
:102050004046FFF741FF5FEA000A10D000F07CF82D
:102060000746A04206D0D9F80000406C10B13221DA
:1020700006F09CFB504600F0B5F8002523E05946D9
:102080000598884701F030F9012007B0BDE8F08FCE
:10209000611BB94202DA504600F088F83DB172196E
:1020A0004146504600F0C6F85046FFF799FE5946A3
:1020B000059888471048016809B1002088475046B4
:1020C000FFF7B0FE3D44A542E2DB5046FFF746FF76
:1020D000002000F087F8A74206D0D9F80000406C35
:1020E00010B1332106F062FB01F0FEF80020CCE7CE
:1020F00088002270E4002270CC02227038B50500FE
:102100004FF0000411D0FFF735FE2846FFF70AFA1A
:102110000090006800698068804702F00DFF044667
:102120006846FFF741FA01F0DFF8204638BD38B5C0
:1021300004000ED0FFF71EFE2046FFF7F3F900F172
:10214000180400906846FFF72FFA01F0CDF82046FA
:1021500038BD002038BD000038B504460025FFF723
:1021600009FE1CB908480068C46D44B12046FFF759
:10217000D9F90090B0F90A506846FFF715FA01F056
:10218000B3F8284638BD00008800227070B50546B7
:102190000024284606F098FD641C18B1BDE8704084
:1021A00000F07AB8052CF4DB70BD000038B50C46A1
:1021B000050004D10A480068C56D002D0FD0FFF757
:1021C000D9FD2846FFF7AEF90090B0F90A10A142F8
:1021D00000DD44816846FFF7E7F901F085F838BD76
:1021E00088002270F8B50546FFF7C4FD104E306830
:1021F000C46DCDB10CB100F057FA05F02BF92846AB
:10220000FFF790F900903168CD650068FFF7CCFAD0
:102210006846FFF7C9F902F0F7FC02F05DFC00BF69
:1022200001F062F82046F8BD00F03EFAF8E7000041
:10223000880022707CB515460E46040004D115486E
:102240000068C46D002C24D0FFF794FD2046FFF7F2
:1022500069F92DB20090C58034B2848002F03CFC54
:102260000098406980B1FFF75DF9009A0190B2F9DA
:1022700008108180B2F90A20C28011B10AB104802D
:10228000458001A8FFF790F96846FFF78DF901F046
:102290002BF87CBD8800227001490A4600F002B884
:1022A00001F0FFFF7FB515460C4606002DD0FFF765
:1022B00061FD3046FFF736F940F6FF710190CC42E0
:1022C00003D1B0F90440B0F906500289611E1144EF
:1022D000ADF80840ADF80C104189681E0844ADF80F
:1022E0000E00ADF80A5001A8FFF75EF902A805F04C
:1022F000E5FE06E02A462146304600F091F805F05A
:102300009FFE0028F6D100F0EFFF7FBD2DE9FF4FC3
:10231000DFF8E8B083B01C46DBF80010DDE91060A0
:1023200092464FF000084B7C42461299FFF7FEF9A7
:10233000050060D028698068804702F0FDFD814675
:102340000AFB09F1C91DCF08FFF7FAF8F10705D11B
:10235000C11700EB9170801000EB4000002C09DCED
:102360001FB11838B0FBF7F000E000206442A04233
:1023700000DC0446F00707D10090DDE903012346A5
:10238000524600F01FFF8046002C03DC2846FFF772
:1023900009FA30E004FB07F01830F10702D0FEF72D
:1023A000E9FF01E0FEF7F6FF06001CD0FFF7BAF8E0
:1023B00001900560039981800499C180A0F808A06C
:1023C0004481C0F81480C0E9037901A8FFF7ECF854
:1023D0001298AE602861DBF80000407CA8613046AE
:1023E00007B0BDE8F08F2846FFF7DCF9B8F1000030
:1023F00001D0FEF7F1FF0020F2E700008800227014
:10240000054B30B41B68054C5B7C54F823301B69CA
:1024100030BC09F0D5BA000088002270C0002270DC
:10242000F8B515460E460746FFF77CF800900068A1
:102430001621C068426A0020904704466846FFF7AC
:10244000B3F8002C03D02A4631463846A047F8BDE1
:10245000F8B516460F46050012D0FFF763F8009056
:1024600044696846FFF7A0F82846FFF747FE034691
:10247000082800DD2CB132463946284609F06AFBAF
:10248000F8BD32463946284609F004FDF8BD10B5BE
:10249000002821D009B30AB3B1F90040B2F90030E5
:1024A0009C4200DA23460380B1F90240B2F90230BF
:1024B0009C4200DA23464380B1F90440B2F904306B
:1024C0009C4200DD23468380B1F90610B2F9062054
:1024D000914200DC1146C18010BD11460A680260BD
:1024E0004968416010BD00280BD003880B4403806D
:1024F000838819448180418811444180C1881144F6
:10250000C180704770B50E4D0446D5E90001884280
:1025100009D10C49884201D13C3000E00C3807C891
:1025200084E8070006E090E80E0084E80E0008F05A
:1025300031F92860207A002800D0012070BD000009
:10254000000122707C367B700448D0E90010814283
:1025500001D1012070470020704700000001227067
:1025600010B509490446086820B9084808600846BB
:1025700001F040FC074906480860204609F0B2F91E
:10258000BDE8104000F058B91001227071AB027024
:10259000D5760270D000227070B50025FFF7EAFBF7
:1025A000094CD4E9002082420AD0D2E900561046F4
:1025B00008F0FAF820603146284605F055FB012561
:1025C00000F092FE284670BDF00022702DE9FC411B
:1025D000154DDDE908742D68B5F90860864200DD07
:1025E0003046B5F90C60964200DA3246824219DB79
:1025F000B5F90A608E4200DD3146B5F90E509D42B4
:1026000000DA2B468B420DDB00E02C46E5682D6896
:1026100025B1042D02D02568002DF6D1CDE9007436
:1026200002F044F9BDE8FC8188002270B0F9022074
:10263000B1F906309A4213DCB1F90220B0F9063044
:102640009A420DDCB0F90020B1F904309A4207DC5F
:10265000B1F90010B0F90400814201DC012070479B
:10266000002070470146024870220068FEF714B847
:102670008800227070B515460E4604000AD0FFF798
:1026800079FB2A463146204608F07EFEBDE87040C0
:1026900000F02ABE70BD0000024970220968FDF7F3
:1026A000FBBF00008800227010B5FFF763FB02F04B
:1026B000C9F902F0A9FA04F0D9FDBDE8104000F014
:1026C00013BE000070B50B4D04462868467CFFF72A
:1026D00051FB022C09D22046FFF7DAF828B128680E
:1026E0004474FFF7E1FF0448046000F0FDFD30464C
:1026F00070BD0000880022707C01227010B5044675
:10270000FFF738FB204602F0BDF9BDE8104000F0AD
:10271000EBBD10B50446FFF72DFB204602F0EAF9A9
:10272000BDE8104000F0E0BD10B50446FFF722FB05
:10273000204602F0F7F9044600F0D6FD204610BD11
:1027400070B50446FFF716FB04480068C56904B17C
:10275000C46100F0C9FD284670BD000088002270E9
:1027600070B514460D460646FFF704FB224629467F
:10277000304602F0F3F9044600F0B6FD204670BD85
:1027800070B50546FFF7F6FA03480068847E857643
:1027900000F0AAFD204670BD8800227070B50C467E
:1027A0000546FFF7E7FA09482246058008480480F5
:1027B00008480068417C084850F82100C1680B6A4D
:1027C00029469847BDE8704000F08EBDEC002270AD
:1027D000EE00227088002270C000227070B505469D
:1027E000FFF7C8FA03480068047E057600F07CFD18
:1027F000204670BD8800227070B50446FFF7BAFA13
:1028000004480068B0F92C50848500F06DFD28461E
:1028100070BD00008800227070B50446FFF7AAFA68
:1028200004480068B0F92A50448500F05DFD284650
:1028300070BD00008800227002480068002800D0A7
:1028400000477047900222700249CA6802B9C86006
:10285000FFF7F2BFF000227010B504000ED0FFF7B2
:1028600089FA204608F000FB204609F079F8204656
:10287000FEF7B2FDBDE8104000F036BD10BD38B522
:102880000C46050011D0FFF775FA2846FEF74AFE00
:1028900000908089204201D0012400E00024684695
:1028A000FEF782FE00F020FD00E00124204638BD46
:1028B00038B50546002028600648046844B1204623
:1028C000FEF730FE0090006928606846FEF76CFE57
:1028D000204638BD5C02227038B504004FF000007D
:1028E0000D46086011D02046FEF71CFE009084685B
:1028F00044B16846FEF758FE2046FEF713FE0090EE
:10290000006928606846FEF74FFE204638BD00008B
:102910002DE9F04F00242DED028B9BB0DFF800B4C1
:10292000DDE9266ADDF8A090A6469FEDFE0ACBF809
:102930000040022839D009AD6F460DF10C0C032878
:102940007EDB00BF4FF0000469D100BF53F8248044
:1029500000EE108A0DF1180808EB8408B8EEC00AE2
:1029600088ED000A56F8248000EE108A05EB8408F2
:10297000B8EEC00A88ED000A51F8248000EE108AF3
:1029800007EB8408B8EEC00A88ED000A52F82480EC
:1029900000EE108A0CEB840804F10104B8EEC00AC2
:1029A000844288ED000AD1DB42E148680968401A98
:1029B00000EE900AD3E90010F8EEE01A401A00EE9B
:1029C000900AD948F8EEE00A81EEA01A00EE901ABB
:1029D000F8EEE00A80ED001A61EE600A80ED010A6F
:1029E000C0ED020A80ED030A51681268891A00EEF0
:1029F000101AD6E90012B8EEC01A521A00EE102AC8
:102A0000B8EEC00AC1EE000A00EE101AB8EEC00A15
:102A1000C0ED040A20EEC00A80ED050A92E10CEB3D
:102A2000840888ED000A07EB840888ED000A05EBAE
:102A3000840888ED000A0DF1180808EB840800E00E
:102A4000B5E1641C88ED000A032CE8DB002794E064
:102A500053F82750DDED080A00EE105AB8EEC00A10
:102A600030EE800A8DED080A56F82740DDED0B0A9E
:102A700000EE104AB8EEC00A30EE800A8DED0B0A67
:102A800051F82780DDED020A00EE108AB8EEC00A88
:102A900030EE800A8DED020A52F827C0DDED050AFE
:102AA00000EE10CA7F1CB8EEC00A30EE800A8DED31
:102AB000050A00EE105ADDED060AB8EEC01A00EE67
:102AC000105AB8EEC00A41EE000A00EE105AB8EEF5
:102AD000C01A00EE104ACDED060ADDED070AB8EE89
:102AE000C00A41EE000A00EE104AB8EEC01A00EE2D
:102AF000104ACDED070ACDED090AB8EEC00ADDEDAA
:102B00000A0A41EE000A00EE105AB8EEC01A00EEB2
:102B1000108ACDED0A0ADDED000AB8EEC00A41EEDA
:102B2000000A00EE104AB8EEC01A00EE108ACDED91
:102B3000000ADDED010AB8EEC00A41EE000A00EE1F
:102B4000105AB8EEC01A00EE10CACDED010ADDED44
:102B5000030AB8EEC00A41EE000A00EE104AB8EED1
:102B6000C01A00EE10CACDED030ADDED040AB8EE7E
:102B7000C00A41EE000ACDED040A8742FFF668AFB5
:102B8000DDED060A9DED080A80EE801A8DED061A2D
:102B90009DED071ADDED0B0AC1EE201ACDED071AE7
:102BA0009DED091AC1EE001ACDED091A9DED0A1A24
:102BB000C1EE201ACDED0A1A9DED001AC1EE001AE1
:102BC000CDED001A9DED011AC1EE201ACDED011ACE
:102BD0009DED031AC1EE001ACDED031A9DED041A06
:102BE000C1EE201A01EE100AB8EEC11ACDED041A9A
:102BF000C0EE011A00EE100AB8EEC00A80EE801A8C
:102C000000EE100ACDED081AB8EEC00A8DED0B1AD1
:102C1000DDED020A80EE801A00EE100AB8EEC00A5E
:102C20008DED021ADDED050A80EE801A8DED051A94
:102C3000DDED061ADDED080A9DED0A5A9DED0B2A21
:102C400071EEE05A9DED071A75EE424A9DED093A84
:102C500031EE604A25EEA40A73EE423A04EE630AAE
:102C6000B5EEC00AF1EE10FA04D3B5EEC00AF1EEEB
:102C700010FA6BDDDDED006ADDED022A9DED016AE3
:102C8000294836EEE27A76EE627A27EE248A07EE5B
:102C9000E38A67EEA57A47EE447AC8EE008A87EEAB
:102CA000807AC0ED008A80ED017A20EE867A01EE0E
:102CB000627A61EEA22A40EEE62A27EE037A05EE5A
:102CC000227A61EE262A41EEC62A02EE227AC7EE69
:102CD000002AC0ED022A9DED036ADDED052A76EE9D
:102CE000626A66EEA47ADDED044A34EEE27A47EEDB
:102CF000637AC7EE803AC0ED033A67EE253A46EEB6
:102D0000C43A83EE804A60EEA43A41EE623A61EE44
:102D1000A22A40EEC62A23EE833A80ED044A05E05B
:102D20007402227000000000E8367B7061EE060A33
:102D300005EE223A41EEE40A02EE203AC3EE000A22
:102D4000C0ED050A0120CBF8000002E0BEF1000F43
:102D50002DD05C460021C4E901A9084607F04AFECF
:102D60000021E060084607F073FE2061A9F101012F
:102D7000AAF1010007F03EFE6061A9F10101AAF18C
:102D8000010007F065FEA0616269E168914201DD22
:102D9000E26061612169814201DDA16120612068F9
:102DA00028B100201BB0BDEC028BBDE8F08F0120E4
:102DB000F8E700002DE9FE43DFF8B89005000A9E11
:102DC000D9F814C04FF00000CCF3410709F13004EA
:102DD00039D0012D02D00120BDE8FE83DFF89480B8
:102DE00008F12008C8E90012052131EA0C013ED0A3
:102DF000012F3CD0C4E90036012199F80030A940E8
:102E00004A46194201D00023137013781943C9B2FE
:102E100089F800100329DFD1174E3068407C01F09B
:102E20003BFC05463068407C01F04AFC114B0094A5
:102E3000CDE901502833A3F10802A2F108010220D4
:102E4000FFF766FDC8E7DFF82C80032F08F11808AC
:102E5000C8E9001208F1100106D00CF00502012AA1
:102E600002D0C1E90036C7E7C1E90063C4E7C4E99D
:102E70000063C1E7240122708800227010B50B4660
:102E8000044600F091F8216800290BDB1A68002A3B
:102E900008DB054B5C68A14204DA99688A4201DAD2
:102EA000002800D0012010BD7402227070B5254C9E
:102EB00086B06078F8B100F0B9F8E06000F0B4F8DE
:102EC000E06803902069049000F03EF88DF8090056
:102ED00004A903A8FFF7D2FF0025B0B1A07870B312
:102EE00060680090A06801908DF80850684600F076
:102EF00031F8A57023E000F0C9F8206100F095F8E2
:102F00006078401C607006B070BD039A6068111A4A
:102F100000D54942049BA068181A00D54042A67803
:102F200016B1084402280ADD62600092A3600126FF
:102F300001938DF80860684600F00CF8A670657083
:102F4000E1E70000240122700148407A7047000048
:102F500000377B703EB504460C221149FDF7A2FAFA
:102F6000002813D00F480E4D026882B194E80B0080
:102F70008DE80B00684601A990479DE80E0085E8A2
:102F80000E00002802D16846FFF7EAFA3EBD20464F
:102F9000FFF7E6FA94E8070085E807003EBD000069
:102FA000DC367B70700222701D4A1268A2B390ED6D
:102FB000000A1C4AD1ED000AF8EEC01A92ED001A80
:102FC000B8EEE02AB8EEC00A21EE211AD2ED011ABD
:102FD000F8EEE00A01EE821AD2ED021A71EE211A21
:102FE000B6EE001A71EE811AFDEEE11AC0ED001A7C
:102FF000D2ED031A002021EE800AD2ED041A01EE70
:10300000A00AD2ED050A30EE200A30EE010ABDEE2C
:10301000C00A81ED000A7047FFE70120FBE70000CE
:1030200074022270E8367B707047704700B5072144
:103030001348FDF707FE1248807800F00F000128C2
:1030400014D10F4880790E49497901F00F0140EA07
:1030500001200C4908800A4800790949C97801F023
:103060000F0140EA01200849088005E04FF47A701A
:1030700005490880034908800348008800BD000016
:103080006805227012002270140022700148008826
:1030900070470000120022702DE9F041084E0446EE
:1030A00005683068016828468847074630684168E7
:1030B00028468847284420603846BDE8F081000053
:1030C000900022702DE9F0410C4606460025064F7F
:1030D00005E0386841683046884706440544641E68
:1030E000F7D22846BDE8F081900022702DE9F0412A
:1030F0001E46069C1746884605463A46A8687F1C29
:103100003346D0F804C041462846E047641EF4D157
:10311000BDE8F08170B5B0F90040091BB0F904407A
:103120008C422CDD00F11404B0F902500069521BEE
:1031300002FB0040CA1800EBE104521ED010B0EBB5
:10314000E10501F007034FF0FF0102F0070221FA49
:1031500003F0C2F1070201FA02F1CEB221780FD0DA
:1031600001436D1E04F8011B002D05DDFF222946D9
:103170002046FDF7CEFA2C4420783043207070BDF5
:1031800030400143217070BD10B5B0F90030B0F986
:103190000240C91A00F114030069121B02FB00303F
:1031A00000EBE10001F0070302788021D9400A43D7
:1031B000027010BDB0F90610026951431430FDF7DA
:1031C000B0BA00002DE9F843804602F10F0000116B
:1031D000470003FB07F01C46154689461430FEF7EE
:1031E000D9F8060018D0FEF7C5FD3046FEF79AF96B
:1031F0000090A0F80080A0F802908580C480074964
:1032000081600121818107616846FEF7CDF900F0F8
:103210006BF83046BDE8F8830020FBE77CFF0B70BD
:1032200070B5B0F90660B0F904400B6800F1140500
:1032300096421BDD0069A34202FB005000EBE30253
:1032400014DA641EE010A0EBE30512F8010B03F0A2
:103250000704A040C4B206E045B1083312F8014BA0
:1032600023F007036D1E002CF6D004E0002070BD93
:103270006006040E5B1C2006FAD5FF2C07D018460A
:1032800002E06406240E401C6606FAD400E0D81D55
:10329000C443640705D006E012F8014BFF2C09D1A6
:1032A00008306D1EF8D5C01A401C0B6070BD620658
:1032B000140E401C2206FAD4F5E738B50546FEF791
:1032C00059FD2846FEF72EF900908189491E0CB25F
:1032D00084816846FEF768F914B92846FEF77CF841
:1032E00000F002F838BD00000348C168491EC16003
:1032F00001D100F028B870474002227010B54FF499
:1033000080010348FEF760F88020FEF733F910BD16
:1033100078323B70044A1268111800BF024A1268E2
:103320008A1AFBD1704700003800227070470120D4
:1033300070470000014800687047000038002270A4
:1033400070477047704770470EB508B102AA00E099
:103350000022002301A9684600F070FB0EBD0000AA
:10336000074910B50C7818B101200870801E03E0E1
:10337000002008706FF07F4000F012FF204610BD63
:103380007500227010B5082A0EDC0346012A18D0F9
:10339000022A56D0042A76D010F8042B03F8012B09
:1033A000491EF9D1012010BD102A08DC4FEA0002A5
:1033B00030F8043B22F8023B491EF9D1F2E7002025
:1033C00010BD10F8042BD207120E491E34D010F88D
:1033D000044B491E04F0010442EA84122CD010F878
:1033E000044B491E04F0010442EA441224D010F8B0
:1033F000044B491E04F0010442EA04121CD010F8E8
:10340000044B491E04F0010442EAC40214D010F82F
:10341000044B491E04F0010442EA84020CD010F867
:10342000044B491E04F0010442EA440204D010F89F
:10343000044B04F00104224303F8012B0029C0D1FE
:10344000B0E710F8042B9207120E491E15D010F8A1
:10345000044B491E04F0030442EA04120DD010F894
:10346000044B491E04F0030442EA840205D010F81C
:10347000044B04F003042243491E03F8012B0029E6
:10348000DFD18FE7FFE710F8042B1207120E491E59
:1034900005D010F8044B04F00F042243491E03F832
:1034A000012B0029EFD17DE738B50024009400F00E
:1034B0001DF838BD0B4810B5816B002910D10121D2
:1034C0008163FFF71BFFFDF72FFF01F0CDFB0549DF
:1034D00005483C310860BDE81040084600F08ABC51
:1034E00010BD00007400227039AB02702DE9F0416C
:1034F0000D460699044601B901461F68082A09DCF1
:103500000E46012A1AD0022A5BD0042A7DD0082A4E
:1035100013D18DE0102A07DCD3F810C00E46BCF1A1
:10352000000F04D0022389E00020BDE8F08101CC27
:10353000B84726F8020B6D1EF9D189E001CCB847D7
:10354000C0074FEA10686D1E36D001CCB84748EA74
:10355000801000F0FF086D1E2ED001CCB84748EA5D
:10356000401000F0FF086D1E26D001CCB84748EA95
:10357000001000F0FF086D1E1ED001CCB84748EACD
:10358000C00000F0FF086D1E16D001CCB84748EA15
:10359000800000F0FF086D1E0ED001CCB84748EA4D
:1035A000400000F0FF086D1E06D001CCB84740EA8D
:1035B000080000F0FF086D1E06F8018B002DBDD13C
:1035C00046E001CCB84780074FEA10686D1E16D060
:1035D00001CCB84748EA001000F0FF086D1E0ED07D
:1035E00001CCB84748EA800000F0FF086D1E06D005
:1035F00001CCB84740EA080000F0FF086D1E06F84D
:10360000018B002DDDD123E0FFE701CCB847000797
:103610004FEA10686D1E06D001CCB84740EA08009A
:1036200000F0FF086D1E06F8018B002DEDD10FE0B4
:10363000D3F810C0BCF1000F04D001232A46204665
:10364000E04705E001CCB84706F8010B6D1EF9D143
:1036500001206AE77CB5064628480D46006868B137
:10366000002004F02BFD06E06A462946304605F0AE
:10367000F7FB04F0E5FC0028F6D17CBD1068009053
:103680001F4C506801902268BDF8000032F8481FB6
:103690000844ADF80000BDF8020091880844ADF878
:1036A0000200BDF8040011880844ADF80400BDF81C
:1036B000060091880844ADF80600684604F0FEFC58
:1036C0000EE000BF2068BDF800106A464184BDF8D6
:1036D000021081842946304605F0C2FB04F0B0FC9C
:1036E0000028EFD1206830F8221FC28C891A01808F
:1036F0004188428D891A41807CBD0000E80022701B
:10370000880022702DE9FF4F8DB00020DDF86C900D
:10371000164600901D4604460246C9F8000008AB54
:1037200003A902A800F08AF918B1002011B0BDE881
:10373000F08F0898854200DD0546604F0B95604983
:103740003868407C51F82010049109690691FEF711
:1037500013FA05903868407CFEF7B6FA594983465B
:10376000884201D0012000E000200A9001CE1A9981
:1037700088478246000E079077D0009870BB0D985E
:1037800000EB04084D480068B0F90800404503DD2F
:10379000A0EB0807804600E000270299049801EB9F
:1037A000840101EB8701CDE900100B990D984218B7
:1037B00009920E9B40461946521EFEF707FF012054
:1037C0000090059818280ADA0298DDE9052300EB35
:1037D000840000EB8700E91B00F08EF812E00A98E5
:1037E00080B1029800EB840000EB87070998A0EBFA
:1037F000080859463868884701C7A8F101005FEA00
:103800000008F6D1304BD86980B3DDE9020700EB40
:10381000840007EB8402CDE902022B4C361F2B46B5
:10382000E46930460299A047FF203168B0EB116F80
:1038300002D10299096804E0029A1268B0EB126F93
:1038400001D1039A1160029906F10406091D029143
:103850000399091D03916D1EE7D10397D9F8000064
:1038600040F00100C9F8000021E022E0FFE70798DE
:10387000FF2812D0C0F1FF0202981B6850F82410F4
:103880002AF07F409847039941F82400D9F80000B6
:1038900040F00101C9F8001005E00298039950F8C2
:1038A000240041F82400641C6D1E7FF45FAF039870
:1038B0003CE7039941F824A0E8E700008800227063
:1038C000C000227049470270D801227010B5084626
:1038D000FFF7E2FB044604480068C069016820461F
:1038E0008847204610BD0000880022700149096801
:1038F00049680847700022702DE9F05F0C1E16DD44
:103900005E68014600EB8405082A12DC611E012A6C
:1039100026D0022A47D0042A6AD0082A07D10719DC
:1039200017F8010DB04745F8040D641EF8D1BDE845
:10393000F09F102AFBDC5F693FB12246BC46BDE820
:10394000F04F02235DF804EB604701EB440700BF32
:1039500037F8020DB04745F8040D641EF8D1E6E7CC
:1039600000EBE10001F0070710F801A98146802073
:1039700020FA07F8B5F104050AEA0800C7F10701C3
:10398000C840B04745F804093FB14FEA48604FEAE4
:1039900010687F1E641EEFD1C9E719F801A9072737
:1039A0004FF00108F6E700EBA10001F0030710F863
:1039B00001A981467900C02020FA01F84FF0060BDA
:1039C000B5F104050AEA0800ABEB4701C840B0476F
:1039D00045F804093FB14FEA88604FEA10687F1E3E
:1039E000641EEFD1A3E7032719F801A9B846F7E74A
:1039F00000EB6100012710F801A9A7438146B90037
:103A0000F02020FA01F84FF0040B2D1F0AEA0800FD
:103A1000ABEB8701C840B04745F804093FB14FEA16
:103A200008704FEA10687F1E641EEFD17FE719F817
:103A300001A901274FF00F08F6E700002DE9F04734
:103A4000224C06461F46A06990468946002540B98B
:103A50000120A06104F128011D480860084600F01B
:103A6000C9F9606930B91B480068606110B900F09D
:103A7000FFFD606107B138604EB1A06830B9606980
:103A80008000FDF7CFFCA06000B901253060B9F1DE
:103A9000000F0AD0E06830B960698000FDF7C2FC11
:103AA000E06000B90125C9F80000B8F1000F0AD0A4
:103AB000206930B960698000FDF7B4FC206100B96D
:103AC0000125C8F800002846BDE8F087D80122701B
:103AD00011AC0270DC00227073B5144B002201A9F6
:103AE0001B680098984700240090E0B11049002519
:103AF0000968C9694A6922B1126812B101999047EF
:103B00007CBD486838B90EE06846FFF7C5FA05463F
:103B1000FEF748F804440198401E0190F4D5284669
:103B200000F038F8044420467CBD000034022270C6
:103B30008800227073B50D460098002490B10A49A0
:103B40000968C969496959B14A684AB12946904723
:103B50007CBD6846FFF7A0FA20B10A2802D0641C99
:103B6000AC42F6DB20467CBD88002270014800682C
:103B70000068004770002270044AB2F90020026019
:103B80000348B0F90000086070470000EC002270A4
:103B9000EE00227038B5002469460094FEF714F850
:103BA0000099814200DD0C1A204638BDB0F9003082
:103BB000B1F90020934200DA0280B0F90230B1F985
:103BC0000220934200DA4280B0F90430B1F90420B7
:103BD000934200DD8280B0F90620B1F906108A42D6
:103BE00000DDC180704770B5B1F90040B2F9003016
:103BF0009C4200DD23460380B1F90250B2F9024035
:103C0000A54200DD2C464480B1F90460B2F90450AD
:103C1000AE4200DA35468580B1F90610B2F90620C9
:103C2000914200DB1146C1809D4201DBA14201DAD5
:103C3000002070BD012070BD014602480068407C34
:103C400000F002B8880022702DE9F8430126894669
:103C5000044602285DDA304F7A6802B190472E4D53
:103C60005FEA090005F1100532D0012803D0B9F14F
:103C7000020F4ED118E055F8240088B92046FDF710
:103C800007FE009018B3C0680D21426A684690474D
:103C900002003ED049460098904755F8240000267F
:103CA000401C45F8240034E02046FDF7F1FD00906B
:103CB00068B1C0680D21426A68469047040028D068
:103CC000386800B1804749460098A047002620E0A8
:103CD00055F82400A846012812D12046FDF7D8FD4A
:103CE000009068B1C0680D21426A6846904705009F
:103CF00006D0386800B1804749460098A84700269A
:103D000058F8241009B1012200E00022891A48F86D
:103D100024103046BDE8F8830802227030B581F0E7
:103D20007F43FF2480F07F4094EA116101D120F0AD
:103D30007F43010E11FB02F1B1FBF4F100F0FF151E
:103D4000C1F1FF0203F0FF14544301FB05444FF09F
:103D5000FF15240A05EA1323C0F30720534340F05C
:103D6000807001FB003104F0FF1001F0FF210843D7
:103D700080F07F4030BD00002DE9F05F0646DDF8A1
:103D8000389015460C4600200D99804688421ED278
:103D9000DFF840B00C9F4FF0FF0A02CE08CCAAEB30
:103DA000116202FB09F2B2FBFAF0C2B221F07F40CD
:103DB0001946DBF80030984720F07F4001C57F1E90
:103DC000EBD10A9804EB800408F10100DCE7BDE8C0
:103DD000F09F0000D801227070470B8813440380C5
:103DE0008B889B1A83804B8813444380C988891A27
:103DF000C180704702490A6B426008637047000047
:103E00007400227030B50346CCB202E003F8014BD7
:103E1000521E0AB19907F9D1910818D004EB044554
:103E200002F0030205EB052506E020C3091F20C3AD
:103E300043F8085B43F8045C0429F6DA01E020C388
:103E4000491E0029FBD102E003F8014B521E002A53
:103E5000FAD130BD00B504200D4908600C48143873
:103E6000006820F00F00C01C0949143908600120C7
:103E700007490860022000F00DF804200449091FDA
:103E80000860022000F006F804200149086000BD27
:103E90001404024008B50021009104E0BDF80010B0
:103EA000491C89B20091BDF800108142F6DB08BDC3
:103EB00000B50420094908600120091F086002209C
:103EC000FFF7E8FF04200549091F08600220FFF7FB
:103ED000E1FF04200149086000BD00001404024015
:103EE00030B5044600221748006820F00F0040F06B
:103EF00008001449086001201249103108600025AB
:103F000016E004200F49143108600C20FFF7C2FFAF
:103F100004200C49103108605006020E01F01EFF0B
:103F200008B1501CC2B20C20FFF7B4FF681CC5B228
:103F3000082DE6DB14B9FFF7BBFF01E0FFF78AFFAE
:103F4000104630BD0004024008B502460420164960
:103F500008600020009021E002F0800020B10120E4
:103F60001149091F086002E001200F490860022082
:103F7000FFF790FF04200C49091F08600220FFF79B
:103F800089FF0420084908600220FFF783FF5006DC
:103F9000020E9DF80000401CC0B200909DF8000089
:103FA0000828D9DB08BD00001404024000B5012038
:103FB00009490860042008600A20FFF76BFF012010
:103FC0000549091D08600220FFF764FF042002492B
:103FD000091D086000BD00001004024000B50D4836
:103FE000006820F00F00C01C0A4908600120094940
:103FF00014310860042008600220FFF74BFF012005
:10400000044910310860042008600220FFF742FFD5
:1040100000BD00000004024008B5002000901A48CE
:10402000006820F00F0040F00800174908600120E8
:104030001549103108600220FFF72CFF04201249B7
:10404000103108600220FFF725FF0CE0BDF80000EA
:10405000401C80B20090BDF80000322803DDFFF75D
:10406000BDFF012008BD01F079FE0028EED104203B
:104070000549143108600448006820F00F00C01C96
:10408000014908600020EDE70004024072B6704765
:1040900062B670471CB5044600200190009000BF36
:1040A0002948006800F002000028F9D0274800885D
:1040B000020401210D2001F0A1FE23488038806A0E
:1040C000009003E020488038806A0090009800F05B
:1040D000C1000028F6D0009800F0800028B18020B0
:1040E00019498039886201201CBD009800F0400009
:1040F00028B140201449803988620320F4E712482F
:104100008038006D00F03F000D2801D01020EBE753
:10411000FF200D49803988620846C06C01060A48B4
:104120008038806C41EA004107488038406C41EAA1
:10413000002005498039096C084301900198C0F3BB
:10414000432020700020CFE780300140040022701F
:1041500070B5FF23104CB3EB116F05D12346050E4C
:104160001B680AD0FF2D14D00C4B02EB0212D2B206
:104170001B6898472168084070BD514201EB01114E
:104180004FF07F4220F07F4002EB0161084318406E
:1041900070BD01EA030070BDA0022270D801227038
:1041A00002490A680860104670470000A0022270A9
:1041B0000449054A0968497C52F8211009690968CF
:1041C0000847000088002270C00022702DE9F04FDF
:1041D00005468DB07B48DDF860901A9C00681E464D
:1041E00017464FF0000A78B11B9B199ACDF808903A
:1041F0000593CDE90324DDE91623CDE90023046806
:1042000033463A46284680E0DDE9160201EB06080F
:1042100005EB070C1043A8F10108ACF1010C0128D3
:1042200006D0C9F108000590002002910990C6E06F
:1042300065480268B2F90A30581A002806DD361AB5
:10424000002E63DD1946199B00FB0344B2F90E00F2
:10425000A8EB0000002802DD361A002E56DDB2F968
:104260000C00ACEB0000002800DD3F1AB2F908306A
:104270000020AB4235DD581B3F1A4B46B9F1080F01
:1042800026D006DC012B0BD0022B11D0042B28D119
:1042900016E0102B1ED0182B1FD0202B21D11CE094
:1042A00020F0070304EBE0041D4400F0070018E0D1
:1042B00020F0030304EBA0041D4400F0030010E011
:1042C00020F0010304EB60041D4400F0010008E04D
:1042D000044404E004EB400401E004EB80040544E2
:1042E0000020002F12DD1B9BDDF864C0CDE9040324
:1042F000CDE90069CDE902C4527C34483B4650F810
:104300002200C26854680A462946A0470DB0BDE89D
:10431000F08F1799029808440C902B49401E00908A
:104320000A68B2F90A30834241DCB2F90E100298F1
:1043300081423CDB4FF0000BD84603950A9434E0F1
:10434000BBF1000F05D10A984FF0080B10F801AB34
:104350000A900599ABEB090B3AFA01F00AFA09F158
:1043600001F0FF0A04D118490968097C890716D4AD
:1043700015490968C96B0A680B921B9A0AB152F871
:104380002000086016990398009B4218521E02995B
:1043900000F0A8F80C490B980968C96B08600399EC
:1043A000169808F1010808440390B845C8DB09983D
:1043B000401C09900C980290199804440998B04246
:1043C000A7DBA3E7E800227088002270C0002270FB
:1043D000F0B40C4612490968B1F90A30A3421CDC5A
:1043E000B1F90E30A34218DBB1F90830834200DD89
:1043F0001846B1F90C30934200DA1A4682420CDBBF
:104400004B7C084951F8235013462246E9688E68D0
:1044100001462846B446F0BC6047F0BC7047000037
:1044200088002270C00022700A46174930B409681B
:10443000B1F90A30934225DCB1F90E30934221DB09
:10444000B1F9083083421DDCB1F90C30834219DB2D
:104450000B7C0E4CDB0709D0497C54F82130D9681D
:10446000CC690146A44630BC18466047CB6B497CFA
:104470001B6854F82140E1688D6901462046AC462E
:1044800030BC604730BC704788002270C00022708A
:10449000124B30B41B68B3F9084084421CDCB3F9FA
:1044A0000C40844218DBB3F90A408C4200DD2146FF
:1044B000B3F90E40944200DA22468A420CDB5C7C5F
:1044C000074B53F82440E368DD6813460A4601466B
:1044D0002046AC4630BC604730BC70478800227034
:1044E000C000227038B5134C2468B4F908508542D6
:1044F00000DD2846B4F90C50954200DA2A46824283
:1045000017DBB4F90A508D4200DD2946B4F90E508C
:104510009D4200DA2B468B420BDB0093647C064BFA
:1045200053F82440E3681D6913460A4601462046B5
:10453000A84738BD88002270C00022702DE9F047DE
:1045400004460D46089E4FF0000CC4EB04184FEAD9
:10455000481700201BE0002113E0E0460CF1010C9D
:1045600056F8288007EB00094FF4F07A0AFB01990E
:10457000A944DFF824A04AF8298001F101081FFAB4
:1045800088F19142E9DB00F101081FFA88F09842B6
:10459000E1DBBDE8F087000000062270082105F08D
:1045A000E1BF000002480068806B006870470000AF
:1045B0008800227002480068C06B006870470000E5
:1045C000880022700C2105F0CDBF0D2105F0CABF77
:1045D000024809210068407C05F0C4BF88002270B1
:1045E000092105F0BFBF70B500252C462046FDF718
:1045F0004FF900B16D1C641C022CF7DB284670BD1E
:1046000002480068407C00F003B800008800227077
:1046100010B5FDF73DF9002805D0C168CA6ABDE8AC
:1046200010400221104710BDF8B515460E46012472
:10463000FDF72EF9009058B1C0680421426A68461F
:104640009047030004D02A4631460098984700243A
:104650002046F8BD02480E210068407C05F082BF6C
:10466000880022700E2105F07DBF032105F07ABF7E
:10467000032005F0FABF042105F074BF02480121B0
:104680000068407C05F06EBF880022700148006819
:104690007047000064012270012105F063BF012012
:1046A00005F0E3BF024802210068407C05F05ABFD4
:1046B0008800227001484068704700006401227041
:1046C000022105F04FBF022005F0CFBFAFF30080FD
:1046D0002DE9F041060008D0B76837B1124881686B
:1046E00019B13468B4F5807F02DD0020BDE8F081A7
:1046F00001688C4200DD0C460025804609E000BFC1
:1047000057F82500FFF754FDD8F8081041F82500A8
:104710006D1CA542F4DBD8F80410444609B13046BC
:104720008847A068E2E70000B80222700449054A01
:104730000968497C52F82110096949680847000056
:1047400088002270C000227070470106C0F3072362
:10475000C0F30742080A40EA0320104370470000F4
:10476000F8B500F0B9F900F049F8040040D100258F
:104770002846FDF78DF8009048B1C0680C21426AC8
:1047800068469047010007D00098884704436D1C95
:10479000022DEDDB14B12BE00120F8BD00F048F84C
:1047A000144815490068884222D0012543F6FF7657
:1047B0002846FDF76DF80090C0B12846FDF782FF4E
:1047C000042000F0AFF90021324633460846FFF7D7
:1047D00089FE002000F0A6F900980E21C068426A08
:1047E00068469047010001D0009888476D1EDFD5CC
:1047F0002046F8BD84002270EFCDABFF10B50A4C07
:10480000A06860B920688000FCF70CFEA06040B191
:1048100004F10C01054808600846FFF7EBFA002098
:1048200010BD012010BD0000B80222704DAC027016
:104830002DE9F047FFF7D7FE07460024DFF8608038
:104840002AE02046FDF724F828B3D8F8000090F8B5
:10485000119044742046FFF7A1FE082817DC114888
:10486000114950F824000069884210D02046FFF713
:10487000B7FE0646002508E0E8B2FFF757FF0246FC
:10488000E9B2204600F054F96D1CB542F4DBD8F8CB
:10489000001081F81190641CBC42D2DBBDE8F087A7
:1048A00088002270C00022709CFF0B702DE9FF4F22
:1048B00083B01646DDE910408B46C0684769426AFE
:1048C0007AB1012111A8904705000AD00698CDE9D8
:1048D000000433465A4603991198A84707B0BDE82B
:1048E000F08F57480068407CFDF746F9824608285B
:1048F00001DC012005E0BAF1100F01DC022000E02C
:1049000004208046002596E04046B8F1010F05D00E
:10491000022871D0B8F1040F25D17CE0BAF1090F5B
:1049200021D2DFE80AF08605213F3F595959590045
:10493000039815E001465A461198B847C5F107019A
:1049400088404FF67F722178EA40114001436D1C88
:10495000217004EBE50425F00700054109F1010091
:104960008146B042E6DD64E0039817E001465A460E
:104970001198B8470621A1EB450188406B004FF61E
:104980003F722178DA40114001436D1C217004EB25
:10499000A50425F00300054109F101008146B0425C
:1049A000E4DD46E0039813E001465A461198B84703
:1049B0000421A1EB850188402178AB000F229A40A9
:1049C0001140014321702C4485F0010509F10100DB
:1049D0008146B042E8DD2CE0DDF80C9007E00146AE
:1049E0005A461198B847207009F1010944444846D5
:1049F000B145F4DD1DE0FFE7DDF80C9007E001466E
:104A00005A461198B847208009F1010944444846A4
:104A1000B145F4DD0DE0DDF80C9007E001465A46A3
:104A20001198B847206009F1010944444846B1454E
:104A3000F4DD0BF1010B06998B457FF765AF4DE770
:104A40008800227010B50D4C0D492068407C51F84B
:104A5000200048B1C16811B10968042901D000687B
:104A6000F7E708B1FCF7F6FE20680021C16500F108
:104A700008014161BDE8104000F02EB888002270A6
:104A8000C000227001490968496808479C022270E9
:104A9000044909680A7C520701D5C96B00E0896B9B
:104AA00008607047880022707CB5094C0546206874
:104AB000417C084850F82100C1680A6B694690475C
:104AC00020686A4629460830FFF78DF87CBD000053
:104AD00088002270C00022700448016804484A7CA3
:104AE000083150F82200C268126B1047880022700B
:104AF000C000227001490968096808479C022270B9
:104B0000044909680A7C520701D5896B00E0C96B2A
:104B10000860704788002270014AC2E900017047AE
:104B20006401227001490968896808479C02227063
:104B3000F8B515460E460124FCF7AAFE009058B1C0
:104B4000C0681021426A68469047030004D02A4694
:104B500031460098984700242046F8BDF8B5154620
:104B60000E460124FCF794FE009058B1C068032162
:104B7000426A68469047030004D02A4631460098AE
:104B8000984700242046F8BDF8B515460E46012486
:104B9000FCF77EFE009058B1C0680B21426A68465F
:104BA0009047030004D02A463146009898470024D5
:104BB0002046F8BD38B50D460124FCF769FE00908B
:104BC00050B1C0680921426A68469047020003D08C
:104BD0002946009890470024204638BDF8B5154670
:104BE0000E460124FCF754FE009058B1C0680A211B
:104BF000426A68469047030004D02A46314600982E
:104C0000984700242046F8BD10B5074C2068006B7B
:104C1000FFF7CEFAFFF774FF2068406BFFF7C8FA82
:104C2000BDE81040FFF734BF88002270002113E078
:104C300000F080021AB10122094B1A6102E0012240
:104C4000074B5A614206100E4FF40072054B1A6072
:104C50001B1F1A604A1CD1B20829E9DB704700000B
:104C6000001002401404024008B500231A462249ED
:104C70002248FCF783FD4FF4F07240F256310020D9
:104C8000FFF782FF1E490020FFF794FF1C481D49D3
:104C90000860FFF7DFFC70B14FF4F07240F256315C
:104CA0000020FFF771FF4FF4F07240F25631002000
:104CB000FFF794FF0DE040F256324FF4F071002000
:104CC000FFF762FF40F256324FF4F0710020FFF719
:104CD00085FF40F256300123421E00210090084615
:104CE000FEF768F84FF4F0700123421E0021009097
:104CF0001846FEF75FF808BD70E10B7088E10B7095
:104D0000000622700000044010B503461446012935
:104D100002D00E2902D104E0002010BD4FF0FF3276
:104D200000BF00BF1046F8E72DE9FF4F8DB01746D2
:104D3000674ADDF870901E9E209812681D46002478
:104D40008AB11D9B1F98CDE90293CDE90460DDE98E
:104D50001A03CDE9000314682B463A460D98A04784
:104D600011B0BDE8F08F0D9A01EB050802EB070CBE
:104D7000DDE91A231A43A8F10108ACF1010C012A5C
:104D800006D0C9F108004FF0000B029105909CE09D
:104D9000504A1268B2F90A40631A002B06DDED1A78
:104DA000002DDDDD21461D9C03FB0466B2F90E30AB
:104DB000A8EB0303002B02DDED1A002DD0DDB2F9C4
:104DC0000C30ACEB0303002B00DDFF1A0D9B1C1A0B
:104DD000B2F90830A3420DDDA3EB040C0CEB000389
:104DE000181A20F007000444A7EB0C0706EBE306B3
:104DF00003F00700002FB3DDDDF874C01F9BCDE981
:104E000002C6CDE90403CDE90059527C32483B4645
:104E100050F82200C26855680A462146A8479FE715
:104E20001B99029808440C902A49401E00900A6879
:104E3000B2F90A30834242DCB2F90E100298814284
:104E40003DDB4FF0000A0D980A96D046039034E0FF
:104E5000BAF1000F05D10A984FF0080A10F8014B7B
:104E60000A900599AAEB090A34FA01F004FA09F448
:104E7000E4B204D117490968097C890717D4154998
:104E80000968C96B0A680B921F9A0AB152F8200090
:104E9000086003991A98009B0A18DDE90210521E57
:104EA000FFF720FB0B490B980968C96B0860039951
:104EB0001A9808F1010808440390B845C8DB0C981B
:104EC00002901D980BF1010B0644AB45A8DB47E7A8
:104ED000E800227088002270C0002270002818D0DC
:104EE000410817D0810817D0C10817D0010917D081
:104EF000410917D0010A17D0410A17D0010B15D06C
:104F0000C10B13D0010C11D0810C11D0000E11D0A7
:104F1000202070470120704702207047032070470F
:104F20000420704705207047082070471020704704
:104F3000122070471820704700B50022FFF7CEFFFF
:104F4000012804D0811E062903D808220BE0012283
:104F500009E0A0F10901072901D8102203E0113866
:104F60000F2800D82022104600BD08B509E04FF4F4
:104F7000FA71009102E00099491E00910099002900
:104F8000F9D1011EA0F10100F1D108BD10B5FF203B
:104F900001F0DAFEFF2001F0F3FE982001F0F0FEB0
:104FA000062001F0EDFE042001F0EAFE012001F0F0
:104FB000E7FE082001F0C8FE102001F0E1FE2120EC
:104FC00001F0C2FE012001F0DBFE302001F0BCFE4A
:104FD000012001F0D5FE312001F0B6FE022001F0E3
:104FE000CFFE402001F0B0FE182001F0C9FE4120A4
:104FF00001F0AAFE662001F0C3FE422001F0A4FEEB
:10500000022001F0BDFE432001F09EFE0A2001F0C7
:10501000B7FE502001F098FE782001F0B1FE51203B
:1050200001F092FE782001F0ABFE522001F08CFEE0
:10503000002001F0A5FE532001F086FE1F2001F0A4
:105040009FFE572001F080FE502001F099FE602065
:1050500001F07AFE072001F093FE612001F074FE5A
:10506000012001F08DFE622001F06EFE072001F0AC
:1050700087FE632001F068FE002001F081FEA02081
:1050800001F062FE002001F07BFEA12001F05CFE39
:105090000A2001F075FEA22001F056FE122001F058
:1050A0006FFEA32001F050FE0D2001F069FEA42048
:1050B00001F04AFE072001F063FEA52001F044FE46
:1050C000092001F05DFEA62001F03EFE062001F061
:1050D00057FEA72001F038FE032001F051FEA82062
:1050E00001F032FE092001F04BFEA92001F02CFE58
:1050F0000D2001F045FEAA2001F026FE152001F04A
:105100003FFEAB2001F020FE072001F039FEAC206D
:1051100001F01AFE0D2001F033FEAD2001F014FE67
:105120000D2001F02DFEAE2001F00EFE062001F054
:1051300027FEAF2001F008FE002001F021FEC02074
:1051400001F002FE002001F01BFEC12001F0FCFD79
:105150000A2001F015FEC22001F0F6FD122001F038
:105160000FFEC32001F0F0FD0E2001F009FEC42067
:1051700001F0EAFD072001F003FEC52001F0E4FD87
:10518000092001F0FDFDC62001F0DEFD072001F041
:10519000F7FDC72001F0D8FD032001F0F1FDC82084
:1051A00001F0D2FD092001F0EBFDC92001F0CCFD9A
:1051B0000C2001F0E5FDCA2001F0C6FD152001F02C
:1051C000DFFDCB2001F0C0FD072001F0D9FDCC2090
:1051D00001F0BAFD0C2001F0D3FDCD2001F0B4FDAB
:1051E0000D2001F0CDFDCE2001F0AEFD062001F036
:1051F000C7FDCF2001F0A8FD002001F0C1FDFF2078
:1052000001F0A2FDFF2001F0BBFD982001F0B8FDE8
:10521000062001F0B5FD042001F0B2FD062001F0EA
:10522000AFFD002001F090FD212001F0A9FD01203B
:1052300001F08AFD062001F0A3FD022001F084FDAB
:10524000A02001F09DFD032001F07EFD022001F071
:1052500097FD042001F078FD012001F091FD05206B
:1052600001F072FD012001F08BFD062001F06CFDC4
:10527000802001F085FD072001F066FD042001F08B
:105280007FFD082001F060FD002001F079FD09207C
:1052900001F05AFD802001F073FD0A2001F054FD59
:1052A000002001F06DFD0B2001F04EFD002001F00B
:1052B00067FD0C2001F048FD2C2001F061FD0D2060
:1052C00001F042FD2C2001F05BFD0E2001F03CFDC1
:1052D0001C2001F055FD0F2001F036FD002001F0EB
:1052E0004FFD102001F030FDFF2001F049FD11209D
:1052F00001F02AFDF02001F043FD122001F024FD11
:10530000002001F03DFD132001F01EFD002001F002
:1053100037FD142001F018FD002001F031FD1520AB
:1053200001F012FDC02001F02BFD162001F00CFD54
:10533000082001F025FD172001F006FD002001F0F6
:105340001FFD182001F000FD002001F019FD1920BB
:1053500001F0FAFC002001F013FD1A2001F0F4FC2A
:10536000002001F00DFD1B2001F0EEFC002001F0FB
:1053700007FD1C2001F0E8FC002001F001FD1D20CC
:1053800001F0E2FC002001F0FBFC202001F0DCFC3D
:10539000012001F0F5FC212001F0D6FC232001F0D2
:1053A000EFFC222001F0D0FC452001F0E9FC232095
:1053B00001F0CAFC672001F0E3FC242001F0C4FCEA
:1053C000012001F0DDFC252001F0BEFC232001F0CE
:1053D000D7FC262001F0B8FC452001F0D1FC2720A5
:1053E00001F0B2FC672001F0CBFC302001F0ACFCF6
:1053F000122001F0C5FC312001F0A6FC222001F0B2
:10540000BFFC322001F0A0FC222001F0B9FC3320C7
:1054100001F09AFC222001F0B3FC342001F094FC4E
:10542000872001F0ADFC352001F08EFC962001F0C4
:10543000A7FC362001F088FCAA2001F0A1FC37204F
:1054400001F082FCDB2001F09BFC382001F07CFCA9
:10545000CC2001F095FC392001F076FCBD2001F054
:105460008FFC3A2001F070FC782001F089FC3B2091
:1054700001F06AFC692001F083FC3C2001F064FC2F
:10548000222001F07DFC3D2001F05EFC222001F095
:1054900077FC3E2001F058FC222001F071FC3F20F7
:1054A00001F052FC222001F06BFC402001F04CFC8A
:1054B000222001F065FC522001F046FC102001F092
:1054C0005FFC532001F040FC102001F059FCFF204C
:1054D00001F03AFCFF2001F053FC982001F050FC51
:1054E000062001F04DFC042001F04AFC002001F0F0
:1054F00047FC362001F028FC022001F041FC3A2054
:1055000001F022FC772001F03BFC112001F01CFC93
:105510007820FFF72AFD292001F016FC10BD0000BD
:1055200010B50121C80700F013F90848006840F0E1
:105530008050064908604FF4803004493C310860CF
:105540004FF4E070091F086010BD000000380240F1
:105550000220054948640846806C80F00100886498
:105560000846806C704700000000044070B50021C0
:1055700000230F22C47804B3194C246804F4E064B7
:10558000C4F5E064210AC1F10403CA40447804FA76
:1055900003F18478144021430901124C0678A15587
:1055A000047804F01F050124AC4005786D11AD00AE
:1055B00005F1E025C5F8004109E0047804F01F0575
:1055C0000124AC40084D0678761145F82640047851
:1055D0006411A40004F1E024D4F8003170BD00008F
:1055E0000CED00E000E400E080E100E0024901434E
:1055F000024A1160704700000000FA050CED00E05F
:10560000F0B504460F4615464FF6FF76002000F031
:105610007DF822E0002000F06DF8032000F08CF807
:10562000C4F3074000F088F8C4F3072000F084F8C2
:10563000E0B200F081F8B54206D93146384600F0B4
:1056400013F83744AD1B04E02946384600F00CF847
:105650000025012000F04EF83444002DDAD100205E
:1056600000F054F8F0BD000010B504460B460120D0
:1056700000F04CF800201D490860091D08604FF437
:105680002070091F08601A48184908310860081D71
:1056900004601748001F4362081F0360001F006872
:1056A00040F00100114908601148001F806940F472
:1056B00000700F49091F886100BF0C48443800681A
:1056C00000F400500028F8D04FF40050074940394A
:1056D00008600748001F806920F400700449091F12
:1056E0008861002000F012F810BD00004464024000
:1056F0000460014018B90021034A916202E00121CF
:10570000014A9162704700000060014009498969BF
:1057100021F01801074A916128B91146896941F0C1
:105720000801916105E00349896941F01001014ACE
:1057300091617047006001400449086000BF03495F
:10574000097A01F001010029F9D070470060014099
:1057500029B1064A12680243044B1A6004E0034A66
:1057600012688243014B1A607047000020380240E3
:1057700029B1064A12680243044B1A6004E0034A46
:1057800012688243014B1A607047000028380240BB
:1057900029B1064A12680243044B1A6004E0034A26
:1057A00012688243014B1A60704700002C38024097
:1057B0001248006840F00100104908600F480830A6
:1057C00000680F4908400D49083108600B4800681F
:1057D0000C490840094908600846006820F4802008
:1057E000086006480830006820F4FE0003490831CC
:1057F00008600020091D0860704700000038024062
:105800000000FFF8FFFFF6FE70B5044600250026F5
:105810002248006800F00C0525B1042D05D0082DA4
:105820000DD105E01E4820600CE01D48206009E015
:105830001C4800682060204607F0A8FF02E01848D6
:10584000206000BF00BF1548006800F0F0052D097A
:105850001548465D2068F04060601048006800F41C
:10586000E0652D0A1048465D6068F040A0600B4876
:10587000006800F46055ED0A0B48465D6068F04032
:10588000E0600648006800F44045AD0B0748465DFF
:10589000E068B0FBF6F0206170BD000008380240FF
:1058A00000127A00500022705800227068002270A6
:1058B00010B501460022002300204A11012A02D11E
:1058C0000A4C236808E0022A03D1084C30342368CC
:1058D00002E0064C3434236801F01F020124944096
:1058E0001C400CB1012000E0002010BD0038024037
:1058F0001149096821F480310F4A11601146096885
:1059000021F480211160B0F5803F03D0B0F5802FE5
:105910000ED106E00849096841F48031064A116059
:1059200007E00549096841F4A021034A116000E03D
:1059300000BF00BF704700000038024030B1074987
:10594000096841F08071054A116005E00349096862
:1059500021F08071014A1160704700000038024058
:1059600070B506460C460025A448056825F47C154C
:105970003543056044B90220A149086000231A4656
:105980000121304600F04AF9B4F5802F08D10320F8
:105990009B49086000231A460221304600F03EF978
:1059A000B4F5002F08D104209549086000231A4659
:1059B0000321304600F032F9B4F5402F08D105201C
:1059C0008F49086001231A461321304600F026F95A
:1059D000B4F5801F08D106208949086000231A46C3
:1059E0000521304600F01AF9B4F5A01F08D10720B0
:1059F0008349086000231A460621304600F00EF95C
:105A0000B4F5C01F08D108207D49086000231A465C
:105A10000721304600F002F9B4F5E01F08D1092053
:105A20007749086000231A460821304600F0F6F84E
:105A3000B4F5001F08D10A207149086000231A46F6
:105A40000921304600F0EAF8B4F5101F08D10B2008
:105A50006B49086000231A460A21304600F0DEF840
:105A6000B4F5201F08D10C206549086000231A46B0
:105A70000B21304600F0D2F8B4F5301F08D10D20CC
:105A80005F49086000231A460C21304600F0C6F832
:105A9000B4F5401F08D10E205949086000231A466A
:105AA0000D21304600F0BAF8B4F5501F08D10F2090
:105AB0005349086000231A460E21304600F0AEF824
:105AC000B4F5601F08D110204D49086000231A4624
:105AD0000F21304600F0A2F8B4F5701F08D1112054
